Archive member included to satisfy reference by file (symbol)

/home/martin/Documents/proyectosDigitalesIII/CMSISv2p00_LPC17xx/Debug/libCMSISv2p00_LPC17xx.a(system_LPC17xx.o)
                              ./src/cr_startup_lpc176x.o (SystemInit)
/home/martin/programasInstalados/lpcxpresso_8.2.2_650/lpcxpresso/tools/bin/../lib/gcc/arm-none-eabi/5.4.1/../../../../arm-none-eabi/lib/armv7-m/libcr_c.a(__weak__main.o)
                              ./src/cr_startup_lpc176x.o (__main)
/home/martin/programasInstalados/lpcxpresso_8.2.2_650/lpcxpresso/tools/bin/../lib/gcc/arm-none-eabi/5.4.1/armv7-m/libcr_eabihelpers.a(division_64.o)
                              /home/martin/Documents/proyectosDigitalesIII/CMSISv2p00_LPC17xx/Debug/libCMSISv2p00_LPC17xx.a(system_LPC17xx.o) (__aeabi_uldivmod)
/home/martin/programasInstalados/lpcxpresso_8.2.2_650/lpcxpresso/tools/bin/../lib/gcc/arm-none-eabi/5.4.1/armv7-m/libcr_eabihelpers.a(division_idiv0.o)
                              /home/martin/programasInstalados/lpcxpresso_8.2.2_650/lpcxpresso/tools/bin/../lib/gcc/arm-none-eabi/5.4.1/armv7-m/libcr_eabihelpers.a(division_64.o) (__aeabi_idiv0)

Discarded input sections

 .group         0x00000000        0x8 ./src/cr_startup_lpc176x.o
 .group         0x00000000        0x8 ./src/cr_startup_lpc176x.o
 .group         0x00000000        0x8 ./src/cr_startup_lpc176x.o
 .group         0x00000000        0x8 ./src/cr_startup_lpc176x.o
 .text          0x00000000        0x0 ./src/cr_startup_lpc176x.o
 .data          0x00000000        0x0 ./src/cr_startup_lpc176x.o
 .bss           0x00000000        0x0 ./src/cr_startup_lpc176x.o
 .group         0x00000000        0x8 ./src/leds.o
 .group         0x00000000        0x8 ./src/leds.o
 .group         0x00000000        0x8 ./src/leds.o
 .group         0x00000000        0x8 ./src/leds.o
 .group         0x00000000        0x8 ./src/leds.o
 .group         0x00000000        0x8 ./src/leds.o
 .group         0x00000000        0x8 ./src/leds.o
 .group         0x00000000        0x8 ./src/leds.o
 .group         0x00000000        0x8 ./src/leds.o
 .text          0x00000000        0x0 ./src/leds.o
 .data          0x00000000        0x0 ./src/leds.o
Memory Configuration

Name             Origin             Length             Attributes
MFlash512        0x00000000         0x00080000         xr
RamLoc32         0x10000000         0x00008000         xrw
RamAHB32         0x2007c000         0x00008000         xrw
*default*        0x00000000         0xffffffff

Linker script and memory map

LOAD ./src/cr_startup_lpc176x.o
LOAD ./src/leds.o
LOAD ./src/timer.o
LOAD ./src/timer_irq.o
LOAD ./src/timer_main.o
LOAD /home/martin/Documents/proyectosDigitalesIII/CMSISv2p00_LPC17xx/Debug/libCMSISv2p00_LPC17xx.a
START GROUP
LOAD /home/martin/programasInstalados/lpcxpresso_8.2.2_650/lpcxpresso/tools/bin/../lib/gcc/arm-none-eabi/5.4.1/../../../../arm-none-eabi/lib/armv7-m/libcr_c.a
LOAD /home/martin/programasInstalados/lpcxpresso_8.2.2_650/lpcxpresso/tools/bin/../lib/gcc/arm-none-eabi/5.4.1/armv7-m/libcr_eabihelpers.a
END GROUP
                0x00000000                __base_MFlash512 = 0x0
                0x00000000                __base_Flash = 0x0
                0x00080000                __top_MFlash512 = 0x80000
                0x00080000                __top_Flash = 0x80000
                0x10000000                __base_RamLoc32 = 0x10000000
                0x10000000                __base_RAM = 0x10000000
                0x10008000                __top_RamLoc32 = 0x10008000
                0x10008000                __top_RAM = 0x10008000
                0x2007c000                __base_RamAHB32 = 0x2007c000
                0x2007c000                __base_RAM2 = 0x2007c000
                0x20084000                __top_RamAHB32 = 0x20084000
                0x20084000                __top_RAM2 = 0x20084000

.text           0x00000000      0x6e4
 FILL mask 0xff
                0x00000000                __vectors_start__ = ABSOLUTE (.)
 *(.isr_vector)
 .isr_vector    0x00000000       0xcc ./src/cr_startup_lpc176x.o
                0x00000000                g_pfnVectors
                0x000000cc                . = ALIGN (0x4)
                0x000000cc                __section_table_start = .
                0x000000cc                __data_section_table = .
                0x000000cc        0x4 LONG 0x6e4 LOADADDR (.data)
                0x000000d0        0x4 LONG 0x10000000 ADDR (.data)
                0x000000d4        0x4 LONG 0x4 SIZEOF (.data)
                0x000000d8        0x4 LONG 0x6e4 LOADADDR (.data_RAM2)
                0x000000dc        0x4 LONG 0x2007c000 ADDR (.data_RAM2)
                0x000000e0        0x4 LONG 0x0 SIZEOF (.data_RAM2)
                0x000000e4                __data_section_table_end = .
                0x000000e4                __bss_section_table = .
                0x000000e4        0x4 LONG 0x10000004 ADDR (.bss)
                0x000000e8        0x4 LONG 0x14 SIZEOF (.bss)
                0x000000ec        0x4 LONG 0x2007c000 ADDR (.bss_RAM2)
                0x000000f0        0x4 LONG 0x0 SIZEOF (.bss_RAM2)
                0x000000f4                __bss_section_table_end = .
                0x000000f4                __section_table_end = .
 *(.after_vectors*)
 .after_vectors
                0x000000f4       0x84 ./src/cr_startup_lpc176x.o
                0x000000f4                NMI_Handler
                0x000000f6                HardFault_Handler
                0x000000f8                MemManage_Handler
                0x000000fa                BusFault_Handler
                0x000000fc                UsageFault_Handler
                0x000000fe                SVCall_Handler
                0x00000100                DebugMon_Handler
                0x00000102                PendSV_Handler
                0x00000104                SysTick_Handler
                0x00000106                RIT_IRQHandler
                0x00000106                I2C0_IRQHandler
                0x00000106                USBActivity_IRQHandler
                0x00000106                PWM1_IRQHandler
                0x00000106                I2C1_IRQHandler
                0x00000106                EINT2_IRQHandler
                0x00000106                UART1_IRQHandler
                0x00000106                EINT3_IRQHandler
                0x00000106                CANActivity_IRQHandler
                0x00000106                UART0_IRQHandler
                0x00000106                IntDefaultHandler
                0x00000106                PLL0_IRQHandler
                0x00000106                CAN_IRQHandler
                0x00000106                PLL1_IRQHandler
                0x00000106                SSP0_IRQHandler
                0x00000106                I2S_IRQHandler
                0x00000106                I2C2_IRQHandler
                0x00000106                RTC_IRQHandler
                0x00000106                SPI_IRQHandler
                0x00000106                EINT1_IRQHandler
                0x00000106                UART2_IRQHandler
                0x00000106                ADC_IRQHandler
                0x00000106                SSP1_IRQHandler
                0x00000106                USB_IRQHandler
                0x00000106                BOD_IRQHandler
                0x00000106                WDT_IRQHandler
                0x00000106                QEI_IRQHandler
                0x00000106                EINT0_IRQHandler
                0x00000106                DMA_IRQHandler
                0x00000106                UART3_IRQHandler
                0x00000106                MCPWM_IRQHandler
                0x00000106                ENET_IRQHandler
                0x00000108                data_init
                0x0000011e                bss_init
                0x00000132                ResetISR
                0x000002fc                . = 0x2fc
 *fill*         0x00000178      0x184 ff
                0x000002fc                PROVIDE (__CRP_WORD_START__, .)
 *(.crp)
 .crp           0x000002fc        0x4 ./src/timer_main.o
                0x000002fc                CRP_WORD
                0x00000300                PROVIDE (__CRP_WORD_END__, .)
                0x00000001                ASSERT (! ((__CRP_WORD_START__ == __CRP_WORD_END__)), Linker CRP Enabled, but no CRP_WORD provided within application)
 *(.text*)
 .text.led2_init
                0x00000300       0x2c ./src/leds.o
                0x00000300                led2_init
 .text.led2_invert
                0x0000032c       0x30 ./src/leds.o
                0x0000032c                led2_invert
 .text.NVIC_EnableIRQ
                0x0000035c       0x30 ./src/timer.o
 .text.enable_timer
                0x0000038c       0x58 ./src/timer.o
                0x0000038c                enable_timer
 .text.init_timer
                0x000003e4       0xb4 ./src/timer.o
                0x000003e4                init_timer
 .text.TIMER0_IRQHandler
                0x00000498       0x24 ./src/timer_irq.o
                0x00000498                TIMER0_IRQHandler
 .text.TIMER1_IRQHandler
                0x000004bc       0x24 ./src/timer_irq.o
                0x000004bc                TIMER1_IRQHandler
 .text.TIMER2_IRQHandler
                0x000004e0       0x24 ./src/timer_irq.o
                0x000004e0                TIMER2_IRQHandler
 .text.TIMER3_IRQHandler
                0x00000504       0x24 ./src/timer_irq.o
                0x00000504                TIMER3_IRQHandler
 .text.main     0x00000528       0xd4 ./src/timer_main.o
                0x00000528                main
 .text.SystemInit
                0x000005fc       0xe4 /home/martin/Documents/proyectosDigitalesIII/CMSISv2p00_LPC17xx/Debug/libCMSISv2p00_LPC17xx.a(system_LPC17xx.o)
                0x000005fc                SystemInit
 .text.__weak_main
                0x000006e0        0x4 /home/martin/programasInstalados/lpcxpresso_8.2.2_650/lpcxpresso/tools/bin/../lib/gcc/arm-none-eabi/5.4.1/../../../../arm-none-eabi/lib/armv7-m/libcr_c.a(__weak__main.o)
                0x000006e0                __main
                0x000006e0                __weak_main
 *(.rodata .rodata.* .constdata .constdata.*)
                0x000006e4                . = ALIGN (0x4)

.glue_7         0x000006e4        0x0
 .glue_7        0x000006e4        0x0 linker stubs

.glue_7t        0x000006e4        0x0
 .glue_7t       0x000006e4        0x0 linker stubs

.vfp11_veneer   0x000006e4        0x0
 .vfp11_veneer  0x000006e4        0x0 linker stubs

.v4_bx          0x000006e4        0x0
 .v4_bx         0x000006e4        0x0 linker stubs

.iplt           0x000006e4        0x0
 .iplt          0x000006e4        0x0 ./src/cr_startup_lpc176x.o

.rel.dyn        0x000006e4        0x0
 .rel.iplt      0x000006e4        0x0 ./src/cr_startup_lpc176x.o

.ARM.extab
 *(.ARM.extab* .gnu.linkonce.armextab.*)
                0x000006e4                __exidx_start = .

.ARM.exidx
 *(.ARM.exidx* .gnu.linkonce.armexidx.*)
                0x000006e4                __exidx_end = .
                0x000006e4                _etext = .

.data_RAM2      0x2007c000        0x0 load address 0x000006e4
 FILL mask 0xff
                [!provide]                PROVIDE (__start_data_RAM2, .)
 *(.ramfunc.$RAM2)
 *(.ramfunc.$RamAHB32)
 *(.data.$RAM2*)
 *(.data.$RamAHB32*)
                0x2007c000                . = ALIGN (0x4)
                [!provide]                PROVIDE (__end_data_RAM2, .)

.uninit_RESERVED
                0x10000000        0x0
 *(.bss.$RESERVED*)
                0x10000000                . = ALIGN (0x4)
                0x10000000                _end_uninit_RESERVED = .

.data           0x10000000        0x4 load address 0x000006e4
 FILL mask 0xff
                0x10000000                _data = .
 *(vtable)
 *(.ramfunc*)
 *(.data*)
 .data.SystemCoreClock
                0x10000000        0x4 /home/martin/Documents/proyectosDigitalesIII/CMSISv2p00_LPC17xx/Debug/libCMSISv2p00_LPC17xx.a(system_LPC17xx.o)
                0x10000000                SystemCoreClock
                0x10000004                . = ALIGN (0x4)
                0x10000004                _edata = .

.igot.plt       0x10000004        0x0 load address 0x000006e8
 .igot.plt      0x10000004        0x0 ./src/cr_startup_lpc176x.o

.bss_RAM2       0x2007c000        0x0
                [!provide]                PROVIDE (__start_bss_RAM2, .)
 *(.bss.$RAM2*)
 *(.bss.$RamAHB32*)
                0x2007c000                . = ALIGN ((. != 0x0)?0x4:0x1)
                [!provide]                PROVIDE (__end_bss_RAM2, .)

.bss            0x10000004       0x14
                0x10000004                _bss = .
 *(.bss*)
 .bss.timer0_counter
                0x10000004        0x4 ./src/timer.o
                0x10000004                timer0_counter
 .bss.timer1_counter
                0x10000008        0x4 ./src/timer.o
                0x10000008                timer1_counter
 .bss.timer2_counter
                0x1000000c        0x4 ./src/timer.o
                0x1000000c                timer2_counter
 .bss.timer3_counter
                0x10000010        0x4 ./src/timer.o
                0x10000010                timer3_counter
 .bss.i.5003    0x10000014        0x4 ./src/timer_main.o
 *(COMMON)
                0x10000018                . = ALIGN (0x4)
                0x10000018                _ebss = .
                [!provide]                PROVIDE (end, .)

.noinit_RAM2    0x2007c000        0x0
 *(.noinit.$RAM2*)
 *(.noinit.$RamAHB32*)
                0x2007c000                . = ALIGN (0x4)

.noinit         0x10000018        0x0
                0x10000018                _noinit = .
 *(.noinit*)
                0x10000018                . = ALIGN (0x4)
                0x10000018                _end_noinit = .
                [!provide]                PROVIDE (_pvHeapStart, DEFINED (__user_heap_base)?__user_heap_base:.)
                0x10008000                PROVIDE (_vStackTop, DEFINED (__user_stack_top)?__user_stack_top:(__top_RamLoc32 - 0x0))
                [!provide]                PROVIDE (__valid_user_code_checksum, (0x0 - ((((((_vStackTop + (ResetISR + 0x1)) + (NMI_Handler + 0x1)) + (HardFault_Handler + 0x1)) + (DEFINED (MemManage_Handler)?MemManage_Handler:0x0 + 0x1)) + (DEFINED (BusFault_Handler)?BusFault_Handler:0x0 + 0x1)) + (DEFINED (UsageFault_Handler)?UsageFault_Handler:0x0 + 0x1))))
OUTPUT(LPCX176x_cmsis2_timers.axf elf32-littlearm)

.debug_info     0x00000000     0x1594
 .debug_info    0x00000000      0x2cd ./src/cr_startup_lpc176x.o
 .debug_info    0x000002cd      0x534 ./src/leds.o
 .debug_info    0x00000801      0x523 ./src/timer.o
 .debug_info    0x00000d24      0x227 ./src/timer_irq.o
 .debug_info    0x00000f4b      0x331 ./src/timer_main.o
 .debug_info    0x0000127c      0x318 /home/martin/Documents/proyectosDigitalesIII/CMSISv2p00_LPC17xx/Debug/libCMSISv2p00_LPC17xx.a(system_LPC17xx.o)

.debug_abbrev   0x00000000      0x65f
 .debug_abbrev  0x00000000      0x13d ./src/cr_startup_lpc176x.o
 .debug_abbrev  0x0000013d       0xeb ./src/leds.o
 .debug_abbrev  0x00000228      0x193 ./src/timer.o
 .debug_abbrev  0x000003bb       0xcc ./src/timer_irq.o
 .debug_abbrev  0x00000487       0xf2 ./src/timer_main.o
 .debug_abbrev  0x00000579       0xe6 /home/martin/Documents/proyectosDigitalesIII/CMSISv2p00_LPC17xx/Debug/libCMSISv2p00_LPC17xx.a(system_LPC17xx.o)

.debug_loc      0x00000000      0x1a5
 .debug_loc     0x00000000      0x1a5 ./src/cr_startup_lpc176x.o

.debug_aranges  0x00000000      0x178
 .debug_aranges
                0x00000000       0x80 ./src/cr_startup_lpc176x.o
 .debug_aranges
                0x00000080       0x38 ./src/leds.o
 .debug_aranges
                0x000000b8       0x40 ./src/timer.o
 .debug_aranges
                0x000000f8       0x38 ./src/timer_irq.o
 .debug_aranges
                0x00000130       0x20 ./src/timer_main.o
 .debug_aranges
                0x00000150       0x28 /home/martin/Documents/proyectosDigitalesIII/CMSISv2p00_LPC17xx/Debug/libCMSISv2p00_LPC17xx.a(system_LPC17xx.o)

.debug_ranges   0x00000000      0x118
 .debug_ranges  0x00000000       0x70 ./src/cr_startup_lpc176x.o
 .debug_ranges  0x00000070       0x28 ./src/leds.o
 .debug_ranges  0x00000098       0x30 ./src/timer.o
 .debug_ranges  0x000000c8       0x28 ./src/timer_irq.o
 .debug_ranges  0x000000f0       0x10 ./src/timer_main.o
 .debug_ranges  0x00000100       0x18 /home/martin/Documents/proyectosDigitalesIII/CMSISv2p00_LPC17xx/Debug/libCMSISv2p00_LPC17xx.a(system_LPC17xx.o)

.debug_macro    0x00000000     0x2fe4
 .debug_macro   0x00000000       0x52 ./src/cr_startup_lpc176x.o
 .debug_macro   0x00000052      0x88c ./src/cr_startup_lpc176x.o
 .debug_macro   0x000008de       0x10 ./src/cr_startup_lpc176x.o
 .debug_macro   0x000008ee      0x12d ./src/cr_startup_lpc176x.o
 .debug_macro   0x00000a1b      0x5b2 ./src/cr_startup_lpc176x.o
 .debug_macro   0x00000fcd       0x7f ./src/leds.o
 .debug_macro   0x0000104c      0x886 ./src/leds.o
 .debug_macro   0x000018d2       0x1c ./src/leds.o
 .debug_macro   0x000018ee       0x2e ./src/leds.o
 .debug_macro   0x0000191c       0x18 ./src/leds.o
 .debug_macro   0x00001934      0x7af ./src/leds.o
 .debug_macro   0x000020e3      0x2c7 ./src/leds.o
 .debug_macro   0x000023aa       0x7f ./src/timer.o
 .debug_macro   0x00002429       0x89 ./src/timer_irq.o
 .debug_macro   0x000024b2       0xcb ./src/timer_main.o
 .debug_macro   0x0000257d       0x82 ./src/timer_main.o
 .debug_macro   0x000025ff       0x34 ./src/timer_main.o
 .debug_macro   0x00002633      0x12b /home/martin/Documents/proyectosDigitalesIII/CMSISv2p00_LPC17xx/Debug/libCMSISv2p00_LPC17xx.a(system_LPC17xx.o)
 .debug_macro   0x0000275e      0x886 /home/martin/Documents/proyectosDigitalesIII/CMSISv2p00_LPC17xx/Debug/libCMSISv2p00_LPC17xx.a(system_LPC17xx.o)

.debug_line     0x00000000      0xd50
 .debug_line    0x00000000      0x1d4 ./src/cr_startup_lpc176x.o
 .debug_line    0x000001d4      0x207 ./src/leds.o
 .debug_line    0x000003db      0x285 ./src/timer.o
 .debug_line    0x00000660      0x220 ./src/timer_irq.o
 .debug_line    0x00000880      0x2c9 ./src/timer_main.o
 .debug_line    0x00000b49      0x207 /home/martin/Documents/proyectosDigitalesIII/CMSISv2p00_LPC17xx/Debug/libCMSISv2p00_LPC17xx.a(system_LPC17xx.o)

.debug_str      0x00000000     0x9005
 .debug_str     0x00000000     0x3da8 ./src/cr_startup_lpc176x.o
                               0x3e27 (size before relaxing)
 .debug_str     0x00003da8     0x442a ./src/leds.o
                               0x7fab (size before relaxing)
 .debug_str     0x000081d2      0x329 ./src/timer.o
                               0x8052 (size before relaxing)
 .debug_str     0x000084fb       0x5b ./src/timer_irq.o
                               0x7de6 (size before relaxing)
 .debug_str     0x00008556      0x794 ./src/timer_main.o
                               0x84fb (size before relaxing)
 .debug_str     0x00008cea      0x31b /home/martin/Documents/proyectosDigitalesIII/CMSISv2p00_LPC17xx/Debug/libCMSISv2p00_LPC17xx.a(system_LPC17xx.o)
                               0x8140 (size before relaxing)

.comment        0x00000000       0xdc
 .comment       0x00000000       0x6e ./src/cr_startup_lpc176x.o
                                 0x6f (size before relaxing)
 .comment       0x0000006e       0x6f ./src/leds.o
 .comment       0x0000006e       0x6f ./src/timer.o
 .comment       0x0000006e       0x6f ./src/timer_irq.o
 .comment       0x0000006e       0x6f ./src/timer_main.o
 .comment       0x0000006e       0x6f /home/martin/Documents/proyectosDigitalesIII/CMSISv2p00_LPC17xx/Debug/libCMSISv2p00_LPC17xx.a(system_LPC17xx.o)
 .comment       0x0000006e       0x6e /home/martin/programasInstalados/lpcxpresso_8.2.2_650/lpcxpresso/tools/bin/../lib/gcc/arm-none-eabi/5.4.1/../../../../arm-none-eabi/lib/armv7-m/libcr_c.a(__weak__main.o)
                                 0x6f (size before relaxing)

.ARM.attributes
                0x00000000       0x31
 .ARM.attributes
                0x00000000       0x33 ./src/cr_startup_lpc176x.o
 .ARM.attributes
                0x00000033       0x33 ./src/leds.o
 .ARM.attributes
                0x00000066       0x33 ./src/timer.o
 .ARM.attributes
                0x00000099       0x33 ./src/timer_irq.o
 .ARM.attributes
                0x000000cc       0x33 ./src/timer_main.o
 .ARM.attributes
                0x000000ff       0x33 /home/martin/Documents/proyectosDigitalesIII/CMSISv2p00_LPC17xx/Debug/libCMSISv2p00_LPC17xx.a(system_LPC17xx.o)
 .ARM.attributes
                0x00000132       0x33 /home/martin/programasInstalados/lpcxpresso_8.2.2_650/lpcxpresso/tools/bin/../lib/gcc/arm-none-eabi/5.4.1/../../../../arm-none-eabi/lib/armv7-m/libcr_c.a(__weak__main.o)

.debug_frame    0x00000000      0x350
 .debug_frame   0x00000000       0xfc ./src/cr_startup_lpc176x.o
 .debug_frame   0x000000fc       0x98 ./src/leds.o
 .debug_frame   0x00000194       0xd4 ./src/timer.o
 .debug_frame   0x00000268       0x80 ./src/timer_irq.o
 .debug_frame   0x000002e8       0x2c ./src/timer_main.o
 .debug_frame   0x00000314       0x3c /home/martin/Documents/proyectosDigitalesIII/CMSISv2p00_LPC17xx/Debug/libCMSISv2p00_LPC17xx.a(system_LPC17xx.o)
