Archive member included to satisfy reference by file (symbol)

/home/martin/Documents/proyectosDigitalesIII/CMSISv2p00_LPC17xx/Debug/libCMSISv2p00_LPC17xx.a(system_LPC17xx.o)
                              ./src/cr_startup_lpc176x.o (SystemInit)
/home/martin/programasInstalados/lpcxpresso_8.2.2_650/lpcxpresso/tools/bin/../lib/gcc/arm-none-eabi/5.4.1/../../../../arm-none-eabi/lib/armv7-m/libcr_semihost.a(_cr__main.o)
                              ./src/cr_startup_lpc176x.o (__main)
/home/martin/programasInstalados/lpcxpresso_8.2.2_650/lpcxpresso/tools/bin/../lib/gcc/arm-none-eabi/5.4.1/../../../../arm-none-eabi/lib/armv7-m/libcr_c.a(memcpy.o)
                              ./src/easyweb.o (memcpy)
/home/martin/programasInstalados/lpcxpresso_8.2.2_650/lpcxpresso/tools/bin/../lib/gcc/arm-none-eabi/5.4.1/../../../../arm-none-eabi/lib/armv7-m/libcr_c.a(memset.o)
                              ./src/tcpip.o (memset)
/home/martin/programasInstalados/lpcxpresso_8.2.2_650/lpcxpresso/tools/bin/../lib/gcc/arm-none-eabi/5.4.1/../../../../arm-none-eabi/lib/armv7-m/libcr_c.a(initio.o)
                              /home/martin/programasInstalados/lpcxpresso_8.2.2_650/lpcxpresso/tools/bin/../lib/gcc/arm-none-eabi/5.4.1/../../../../arm-none-eabi/lib/armv7-m/libcr_semihost.a(_cr__main.o) (_initio)
/home/martin/programasInstalados/lpcxpresso_8.2.2_650/lpcxpresso/tools/bin/../lib/gcc/arm-none-eabi/5.4.1/../../../../arm-none-eabi/lib/armv7-m/libcr_c.a(memcmp.o)
                              ./src/tcpip.o (memcmp)
/home/martin/programasInstalados/lpcxpresso_8.2.2_650/lpcxpresso/tools/bin/../lib/gcc/arm-none-eabi/5.4.1/../../../../arm-none-eabi/lib/armv7-m/libcr_c.a(printf.o)
                              ./src/easyweb.o (_sprintf)
/home/martin/programasInstalados/lpcxpresso_8.2.2_650/lpcxpresso/tools/bin/../lib/gcc/arm-none-eabi/5.4.1/../../../../arm-none-eabi/lib/armv7-m/libcr_c.a(setvbuf.o)
                              /home/martin/programasInstalados/lpcxpresso_8.2.2_650/lpcxpresso/tools/bin/../lib/gcc/arm-none-eabi/5.4.1/../../../../arm-none-eabi/lib/armv7-m/libcr_c.a(initio.o) (setvbuf)
/home/martin/programasInstalados/lpcxpresso_8.2.2_650/lpcxpresso/tools/bin/../lib/gcc/arm-none-eabi/5.4.1/../../../../arm-none-eabi/lib/armv7-m/libcr_c.a(stdio.o)
                              /home/martin/programasInstalados/lpcxpresso_8.2.2_650/lpcxpresso/tools/bin/../lib/gcc/arm-none-eabi/5.4.1/../../../../arm-none-eabi/lib/armv7-m/libcr_c.a(initio.o) (__Ciob)
/home/martin/programasInstalados/lpcxpresso_8.2.2_650/lpcxpresso/tools/bin/../lib/gcc/arm-none-eabi/5.4.1/../../../../arm-none-eabi/lib/armv7-m/libcr_c.a(strlen.o)
                              /home/martin/programasInstalados/lpcxpresso_8.2.2_650/lpcxpresso/tools/bin/../lib/gcc/arm-none-eabi/5.4.1/../../../../arm-none-eabi/lib/armv7-m/libcr_c.a(printf.o) (strlen)
/home/martin/programasInstalados/lpcxpresso_8.2.2_650/lpcxpresso/tools/bin/../lib/gcc/arm-none-eabi/5.4.1/../../../../arm-none-eabi/lib/armv7-m/libcr_c.a(__fillbuf.o)
                              /home/martin/programasInstalados/lpcxpresso_8.2.2_650/lpcxpresso/tools/bin/../lib/gcc/arm-none-eabi/5.4.1/../../../../arm-none-eabi/lib/armv7-m/libcr_c.a(stdio.o) (__filbuf)
/home/martin/programasInstalados/lpcxpresso_8.2.2_650/lpcxpresso/tools/bin/../lib/gcc/arm-none-eabi/5.4.1/../../../../arm-none-eabi/lib/armv7-m/libcr_c.a(_deferredlazyseek.o)
                              /home/martin/programasInstalados/lpcxpresso_8.2.2_650/lpcxpresso/tools/bin/../lib/gcc/arm-none-eabi/5.4.1/../../../../arm-none-eabi/lib/armv7-m/libcr_c.a(__fillbuf.o) (_deferredlazyseek)
/home/martin/programasInstalados/lpcxpresso_8.2.2_650/lpcxpresso/tools/bin/../lib/gcc/arm-none-eabi/5.4.1/../../../../arm-none-eabi/lib/armv7-m/libcr_c.a(_fdopen.o)
                              /home/martin/programasInstalados/lpcxpresso_8.2.2_650/lpcxpresso/tools/bin/../lib/gcc/arm-none-eabi/5.4.1/../../../../arm-none-eabi/lib/armv7-m/libcr_c.a(initio.o) (_fdopen)
/home/martin/programasInstalados/lpcxpresso_8.2.2_650/lpcxpresso/tools/bin/../lib/gcc/arm-none-eabi/5.4.1/../../../../arm-none-eabi/lib/armv7-m/libcr_c.a(_fflush.o)
                              /home/martin/programasInstalados/lpcxpresso_8.2.2_650/lpcxpresso/tools/bin/../lib/gcc/arm-none-eabi/5.4.1/../../../../arm-none-eabi/lib/armv7-m/libcr_c.a(__fillbuf.o) (_fflush)
/home/martin/programasInstalados/lpcxpresso_8.2.2_650/lpcxpresso/tools/bin/../lib/gcc/arm-none-eabi/5.4.1/../../../../arm-none-eabi/lib/armv7-m/libcr_c.a(_writebuf.o)
                              /home/martin/programasInstalados/lpcxpresso_8.2.2_650/lpcxpresso/tools/bin/../lib/gcc/arm-none-eabi/5.4.1/../../../../arm-none-eabi/lib/armv7-m/libcr_c.a(_deferredlazyseek.o) (_Cwritebuf)
/home/martin/programasInstalados/lpcxpresso_8.2.2_650/lpcxpresso/tools/bin/../lib/gcc/arm-none-eabi/5.4.1/../../../../arm-none-eabi/lib/armv7-m/libcr_c.a(alloc.o)
                              /home/martin/programasInstalados/lpcxpresso_8.2.2_650/lpcxpresso/tools/bin/../lib/gcc/arm-none-eabi/5.4.1/../../../../arm-none-eabi/lib/armv7-m/libcr_c.a(printf.o) (malloc)
/home/martin/programasInstalados/lpcxpresso_8.2.2_650/lpcxpresso/tools/bin/../lib/gcc/arm-none-eabi/5.4.1/../../../../arm-none-eabi/lib/armv7-m/libcr_c.a(fclose.o)
                              /home/martin/programasInstalados/lpcxpresso_8.2.2_650/lpcxpresso/tools/bin/../lib/gcc/arm-none-eabi/5.4.1/../../../../arm-none-eabi/lib/armv7-m/libcr_c.a(initio.o) (fclose)
/home/martin/programasInstalados/lpcxpresso_8.2.2_650/lpcxpresso/tools/bin/../lib/gcc/arm-none-eabi/5.4.1/../../../../arm-none-eabi/lib/armv7-m/libcr_c.a(fflush.o)
                              /home/martin/programasInstalados/lpcxpresso_8.2.2_650/lpcxpresso/tools/bin/../lib/gcc/arm-none-eabi/5.4.1/../../../../arm-none-eabi/lib/armv7-m/libcr_c.a(fclose.o) (fflush)
/home/martin/programasInstalados/lpcxpresso_8.2.2_650/lpcxpresso/tools/bin/../lib/gcc/arm-none-eabi/5.4.1/../../../../arm-none-eabi/lib/armv7-m/libcr_c.a(fseek.o)
                              /home/martin/programasInstalados/lpcxpresso_8.2.2_650/lpcxpresso/tools/bin/../lib/gcc/arm-none-eabi/5.4.1/../../../../arm-none-eabi/lib/armv7-m/libcr_c.a(_deferredlazyseek.o) (fseek)
/home/martin/programasInstalados/lpcxpresso_8.2.2_650/lpcxpresso/tools/bin/../lib/gcc/arm-none-eabi/5.4.1/../../../../arm-none-eabi/lib/armv7-m/libcr_c.a(ftell.o)
                              /home/martin/programasInstalados/lpcxpresso_8.2.2_650/lpcxpresso/tools/bin/../lib/gcc/arm-none-eabi/5.4.1/../../../../arm-none-eabi/lib/armv7-m/libcr_c.a(fseek.o) (ftell)
/home/martin/programasInstalados/lpcxpresso_8.2.2_650/lpcxpresso/tools/bin/../lib/gcc/arm-none-eabi/5.4.1/../../../../arm-none-eabi/lib/armv7-m/libcr_c.a(remove.o)
                              /home/martin/programasInstalados/lpcxpresso_8.2.2_650/lpcxpresso/tools/bin/../lib/gcc/arm-none-eabi/5.4.1/../../../../arm-none-eabi/lib/armv7-m/libcr_c.a(fclose.o) (remove)
/home/martin/programasInstalados/lpcxpresso_8.2.2_650/lpcxpresso/tools/bin/../lib/gcc/arm-none-eabi/5.4.1/../../../../arm-none-eabi/lib/armv7-m/libcr_c.a(__init_alloc.o)
                              /home/martin/programasInstalados/lpcxpresso_8.2.2_650/lpcxpresso/tools/bin/../lib/gcc/arm-none-eabi/5.4.1/../../../../arm-none-eabi/lib/armv7-m/libcr_c.a(alloc.o) (__heaps)
/home/martin/programasInstalados/lpcxpresso_8.2.2_650/lpcxpresso/tools/bin/../lib/gcc/arm-none-eabi/5.4.1/../../../../arm-none-eabi/lib/armv7-m/libcr_c.a(_cr_sbrk.o)
                              /home/martin/programasInstalados/lpcxpresso_8.2.2_650/lpcxpresso/tools/bin/../lib/gcc/arm-none-eabi/5.4.1/../../../../arm-none-eabi/lib/armv7-m/libcr_c.a(alloc.o) (_sbrk)
/home/martin/programasInstalados/lpcxpresso_8.2.2_650/lpcxpresso/tools/bin/../lib/gcc/arm-none-eabi/5.4.1/../../../../arm-none-eabi/lib/armv7-m/libcr_c.a(_do_fflush.o)
                              /home/martin/programasInstalados/lpcxpresso_8.2.2_650/lpcxpresso/tools/bin/../lib/gcc/arm-none-eabi/5.4.1/../../../../arm-none-eabi/lib/armv7-m/libcr_c.a(fflush.o) (_do_fflush)
/home/martin/programasInstalados/lpcxpresso_8.2.2_650/lpcxpresso/tools/bin/../lib/gcc/arm-none-eabi/5.4.1/../../../../arm-none-eabi/lib/armv7-m/libcr_c.a(errno.o)
                              /home/martin/programasInstalados/lpcxpresso_8.2.2_650/lpcxpresso/tools/bin/../lib/gcc/arm-none-eabi/5.4.1/../../../../arm-none-eabi/lib/armv7-m/libcr_c.a(ftell.o) (errno)
/home/martin/programasInstalados/lpcxpresso_8.2.2_650/lpcxpresso/tools/bin/../lib/gcc/arm-none-eabi/5.4.1/../../../../arm-none-eabi/lib/armv7-m/libcr_c.a(_cr_check_heap.o)
                              /home/martin/programasInstalados/lpcxpresso_8.2.2_650/lpcxpresso/tools/bin/../lib/gcc/arm-none-eabi/5.4.1/../../../../arm-none-eabi/lib/armv7-m/libcr_c.a(_cr_sbrk.o) (__check_heap_overflow)
/home/martin/programasInstalados/lpcxpresso_8.2.2_650/lpcxpresso/tools/bin/../lib/gcc/arm-none-eabi/5.4.1/armv7-m/libcr_eabihelpers.a(division_64.o)
                              /home/martin/Documents/proyectosDigitalesIII/CMSISv2p00_LPC17xx/Debug/libCMSISv2p00_LPC17xx.a(system_LPC17xx.o) (__aeabi_uldivmod)
/home/martin/programasInstalados/lpcxpresso_8.2.2_650/lpcxpresso/tools/bin/../lib/gcc/arm-none-eabi/5.4.1/armv7-m/libcr_eabihelpers.a(division_idiv0.o)
                              /home/martin/programasInstalados/lpcxpresso_8.2.2_650/lpcxpresso/tools/bin/../lib/gcc/arm-none-eabi/5.4.1/armv7-m/libcr_eabihelpers.a(division_64.o) (__aeabi_idiv0)
/home/martin/programasInstalados/lpcxpresso_8.2.2_650/lpcxpresso/tools/bin/../lib/gcc/arm-none-eabi/5.4.1/armv7-m/libcr_eabihelpers.a(memcpy.o)
                              /home/martin/programasInstalados/lpcxpresso_8.2.2_650/lpcxpresso/tools/bin/../lib/gcc/arm-none-eabi/5.4.1/../../../../arm-none-eabi/lib/armv7-m/libcr_c.a(memcpy.o) (__aeabi_memcpy)
/home/martin/programasInstalados/lpcxpresso_8.2.2_650/lpcxpresso/tools/bin/../lib/gcc/arm-none-eabi/5.4.1/../../../../arm-none-eabi/lib/armv7-m/libcr_semihost.a(__sys_appexit.o)
                              /home/martin/programasInstalados/lpcxpresso_8.2.2_650/lpcxpresso/tools/bin/../lib/gcc/arm-none-eabi/5.4.1/../../../../arm-none-eabi/lib/armv7-m/libcr_c.a(alloc.o) (__sys_appexit)
/home/martin/programasInstalados/lpcxpresso_8.2.2_650/lpcxpresso/tools/bin/../lib/gcc/arm-none-eabi/5.4.1/../../../../arm-none-eabi/lib/armv7-m/libcr_semihost.a(__sys_close.o)
                              /home/martin/programasInstalados/lpcxpresso_8.2.2_650/lpcxpresso/tools/bin/../lib/gcc/arm-none-eabi/5.4.1/../../../../arm-none-eabi/lib/armv7-m/libcr_c.a(fclose.o) (__sys_close)
/home/martin/programasInstalados/lpcxpresso_8.2.2_650/lpcxpresso/tools/bin/../lib/gcc/arm-none-eabi/5.4.1/../../../../arm-none-eabi/lib/armv7-m/libcr_semihost.a(__sys_flen.o)
                              /home/martin/programasInstalados/lpcxpresso_8.2.2_650/lpcxpresso/tools/bin/../lib/gcc/arm-none-eabi/5.4.1/../../../../arm-none-eabi/lib/armv7-m/libcr_c.a(_writebuf.o) (__sys_flen)
/home/martin/programasInstalados/lpcxpresso_8.2.2_650/lpcxpresso/tools/bin/../lib/gcc/arm-none-eabi/5.4.1/../../../../arm-none-eabi/lib/armv7-m/libcr_semihost.a(__sys_istty.o)
                              /home/martin/programasInstalados/lpcxpresso_8.2.2_650/lpcxpresso/tools/bin/../lib/gcc/arm-none-eabi/5.4.1/../../../../arm-none-eabi/lib/armv7-m/libcr_c.a(_deferredlazyseek.o) (__sys_istty)
/home/martin/programasInstalados/lpcxpresso_8.2.2_650/lpcxpresso/tools/bin/../lib/gcc/arm-none-eabi/5.4.1/../../../../arm-none-eabi/lib/armv7-m/libcr_semihost.a(__sys_read.o)
                              /home/martin/programasInstalados/lpcxpresso_8.2.2_650/lpcxpresso/tools/bin/../lib/gcc/arm-none-eabi/5.4.1/../../../../arm-none-eabi/lib/armv7-m/libcr_c.a(__fillbuf.o) (__sys_read)
/home/martin/programasInstalados/lpcxpresso_8.2.2_650/lpcxpresso/tools/bin/../lib/gcc/arm-none-eabi/5.4.1/../../../../arm-none-eabi/lib/armv7-m/libcr_semihost.a(__sys_readc.o)
                              /home/martin/programasInstalados/lpcxpresso_8.2.2_650/lpcxpresso/tools/bin/../lib/gcc/arm-none-eabi/5.4.1/../../../../arm-none-eabi/lib/armv7-m/libcr_c.a(__fillbuf.o) (__sys_readc)
/home/martin/programasInstalados/lpcxpresso_8.2.2_650/lpcxpresso/tools/bin/../lib/gcc/arm-none-eabi/5.4.1/../../../../arm-none-eabi/lib/armv7-m/libcr_semihost.a(__sys_remove.o)
                              /home/martin/programasInstalados/lpcxpresso_8.2.2_650/lpcxpresso/tools/bin/../lib/gcc/arm-none-eabi/5.4.1/../../../../arm-none-eabi/lib/armv7-m/libcr_c.a(remove.o) (__sys_remove)
/home/martin/programasInstalados/lpcxpresso_8.2.2_650/lpcxpresso/tools/bin/../lib/gcc/arm-none-eabi/5.4.1/../../../../arm-none-eabi/lib/armv7-m/libcr_semihost.a(__sys_rename.o)
                              /home/martin/programasInstalados/lpcxpresso_8.2.2_650/lpcxpresso/tools/bin/../lib/gcc/arm-none-eabi/5.4.1/../../../../arm-none-eabi/lib/armv7-m/libcr_c.a(remove.o) (__sys_rename)
/home/martin/programasInstalados/lpcxpresso_8.2.2_650/lpcxpresso/tools/bin/../lib/gcc/arm-none-eabi/5.4.1/../../../../arm-none-eabi/lib/armv7-m/libcr_semihost.a(__sys_seek.o)
                              /home/martin/programasInstalados/lpcxpresso_8.2.2_650/lpcxpresso/tools/bin/../lib/gcc/arm-none-eabi/5.4.1/../../../../arm-none-eabi/lib/armv7-m/libcr_c.a(__fillbuf.o) (__sys_seek)
/home/martin/programasInstalados/lpcxpresso_8.2.2_650/lpcxpresso/tools/bin/../lib/gcc/arm-none-eabi/5.4.1/../../../../arm-none-eabi/lib/armv7-m/libcr_semihost.a(__sys_tmpnam.o)
                              /home/martin/programasInstalados/lpcxpresso_8.2.2_650/lpcxpresso/tools/bin/../lib/gcc/arm-none-eabi/5.4.1/../../../../arm-none-eabi/lib/armv7-m/libcr_c.a(fclose.o) (__sys_tmpnam)
/home/martin/programasInstalados/lpcxpresso_8.2.2_650/lpcxpresso/tools/bin/../lib/gcc/arm-none-eabi/5.4.1/../../../../arm-none-eabi/lib/armv7-m/libcr_semihost.a(__sys_write.o)
                              /home/martin/programasInstalados/lpcxpresso_8.2.2_650/lpcxpresso/tools/bin/../lib/gcc/arm-none-eabi/5.4.1/../../../../arm-none-eabi/lib/armv7-m/libcr_c.a(printf.o) (__sys_write)

Allocating common symbols
Common symbol       size              file

TCPTimer            0x1               ./src/easyweb.o
HTTPBytesToSend     0x4               ./src/easyweb.o
TCPRxDataCount      0x2               ./src/easyweb.o
HTTPStatus          0x1               ./src/easyweb.o
TCPTxDataCount      0x2               ./src/easyweb.o
RecdFrameIP         0x4               ./src/easyweb.o
RemoteMAC           0x6               ./src/easyweb.o
TCPStateMachine     0x1               ./src/easyweb.o
TCPUNASeqNr         0x4               ./src/easyweb.o
TCPLocalPort        0x2               ./src/easyweb.o
_RxTCPBuffer        0x100             ./src/easyweb.o
ITM_RxBuffer        0x4               ./src/easyweb.o
TCPFlags            0x1               ./src/easyweb.o
RecdFrameMAC        0x6               ./src/easyweb.o
RecdIPFrameLength   0x2               ./src/easyweb.o
PWebSide            0x4               ./src/easyweb.o
RemoteIP            0x4               ./src/easyweb.o
LastFrameSent       0x1               ./src/easyweb.o
TCPRemotePort       0x2               ./src/easyweb.o
TxFrame2Size        0x1               ./src/easyweb.o
TCPAckNr            0x4               ./src/easyweb.o
TransmitControl     0x1               ./src/easyweb.o
TxFrame1Size        0x2               ./src/easyweb.o
ISNGenHigh          0x2               ./src/easyweb.o
_TxFrame2           0x4a              ./src/easyweb.o
RecdFrameLength     0x2               ./src/easyweb.o
_TxFrame1           0x236             ./src/easyweb.o
TCPSeqNr            0x4               ./src/easyweb.o
RetryCounter        0x1               ./src/easyweb.o
SocketStatus        0x1               ./src/easyweb.o

Discarded input sections

 .group         0x00000000        0x8 ./src/cr_startup_lpc176x.o
 .group         0x00000000        0x8 ./src/cr_startup_lpc176x.o
 .group         0x00000000        0x8 ./src/cr_startup_lpc176x.o
 .group         0x00000000        0x8 ./src/cr_startup_lpc176x.o
 .text          0x00000000        0x0 ./src/cr_startup_lpc176x.o
 .data          0x00000000        0x0 ./src/cr_startup_lpc176x.o
 .bss           0x00000000        0x0 ./src/cr_startup_lpc176x.o
 .group         0x00000000        0x8 ./src/easyweb.o
 .group         0x00000000        0x8 ./src/easyweb.o
 .group         0x00000000        0x8 ./src/easyweb.o
 .group         0x00000000        0x8 ./src/easyweb.o
 .group         0x00000000        0x8 ./src/easyweb.o
 .group         0x00000000        0x8 ./src/easyweb.o
 .group         0x00000000        0x8 ./src/easyweb.o
 .group         0x00000000        0x8 ./src/easyweb.o
 .group         0x00000000        0x8 ./src/easyweb.o
 .group         0x00000000        0x8 ./src/easyweb.o
 .group         0x00000000        0x8 ./src/easyweb.o
Memory Configuration

Name             Origin             Length             Attributes
MFlash512        0x00000000         0x00080000         xr
RamLoc32         0x10000000         0x00008000         xrw
RamAHB32         0x2007c000         0x00008000         xrw
*default*        0x00000000         0xffffffff

Linker script and memory map

LOAD ./src/cr_startup_lpc176x.o
LOAD ./src/easyweb.o
LOAD ./src/ethmac.o
LOAD ./src/ew_systick.o
LOAD ./src/tcpip.o
LOAD /home/martin/Documents/proyectosDigitalesIII/CMSISv2p00_LPC17xx/Debug/libCMSISv2p00_LPC17xx.a
START GROUP
LOAD /home/martin/programasInstalados/lpcxpresso_8.2.2_650/lpcxpresso/tools/bin/../lib/gcc/arm-none-eabi/5.4.1/../../../../arm-none-eabi/lib/armv7-m/libcr_semihost.a
LOAD /home/martin/programasInstalados/lpcxpresso_8.2.2_650/lpcxpresso/tools/bin/../lib/gcc/arm-none-eabi/5.4.1/../../../../arm-none-eabi/lib/armv7-m/libcr_c.a
LOAD /home/martin/programasInstalados/lpcxpresso_8.2.2_650/lpcxpresso/tools/bin/../lib/gcc/arm-none-eabi/5.4.1/armv7-m/libcr_eabihelpers.a
END GROUP
                0x00000000                __base_MFlash512 = 0x0
                0x00000000                __base_Flash = 0x0
                0x00080000                __top_MFlash512 = 0x80000
                0x00080000                __top_Flash = 0x80000
                0x10000000                __base_RamLoc32 = 0x10000000
                0x10000000                __base_RAM = 0x10000000
                0x10008000                __top_RamLoc32 = 0x10008000
                0x10008000                __top_RAM = 0x10008000
                0x2007c000                __base_RamAHB32 = 0x2007c000
                0x2007c000                __base_RAM2 = 0x2007c000
                0x20084000                __top_RamAHB32 = 0x20084000
                0x20084000                __top_RAM2 = 0x20084000

.text           0x00000000     0x401c
 FILL mask 0xff
                0x00000000                __vectors_start__ = ABSOLUTE (.)
 *(.isr_vector)
 .isr_vector    0x00000000       0xcc ./src/cr_startup_lpc176x.o
                0x00000000                g_pfnVectors
                0x000000cc                . = ALIGN (0x4)
                0x000000cc                __section_table_start = .
                0x000000cc                __data_section_table = .
                0x000000cc        0x4 LONG 0x401c LOADADDR (.data)
                0x000000d0        0x4 LONG 0x10000000 ADDR (.data)
                0x000000d4        0x4 LONG 0x8 SIZEOF (.data)
                0x000000d8        0x4 LONG 0x401c LOADADDR (.data_RAM2)
                0x000000dc        0x4 LONG 0x2007c000 ADDR (.data_RAM2)
                0x000000e0        0x4 LONG 0x0 SIZEOF (.data_RAM2)
                0x000000e4                __data_section_table_end = .
                0x000000e4                __bss_section_table = .
                0x000000e4        0x4 LONG 0x10000008 ADDR (.bss)
                0x000000e8        0x4 LONG 0x544 SIZEOF (.bss)
                0x000000ec        0x4 LONG 0x2007c000 ADDR (.bss_RAM2)
                0x000000f0        0x4 LONG 0x0 SIZEOF (.bss_RAM2)
                0x000000f4                __bss_section_table_end = .
                0x000000f4                __section_table_end = .
 *(.after_vectors*)
 .after_vectors
                0x000000f4       0x84 ./src/cr_startup_lpc176x.o
                0x000000f4                NMI_Handler
                0x000000f6                HardFault_Handler
                0x000000f8                MemManage_Handler
                0x000000fa                BusFault_Handler
                0x000000fc                UsageFault_Handler
                0x000000fe                SVCall_Handler
                0x00000100                DebugMon_Handler
                0x00000102                PendSV_Handler
                0x00000106                TIMER2_IRQHandler
                0x00000106                RIT_IRQHandler
                0x00000106                I2C0_IRQHandler
                0x00000106                USBActivity_IRQHandler
                0x00000106                PWM1_IRQHandler
                0x00000106                I2C1_IRQHandler
                0x00000106                EINT2_IRQHandler
                0x00000106                UART1_IRQHandler
                0x00000106                EINT3_IRQHandler
                0x00000106                CANActivity_IRQHandler
                0x00000106                TIMER3_IRQHandler
                0x00000106                UART0_IRQHandler
                0x00000106                IntDefaultHandler
                0x00000106                PLL0_IRQHandler
                0x00000106                CAN_IRQHandler
                0x00000106                PLL1_IRQHandler
                0x00000106                SSP0_IRQHandler
                0x00000106                I2S_IRQHandler
                0x00000106                I2C2_IRQHandler
                0x00000106                RTC_IRQHandler
                0x00000106                TIMER0_IRQHandler
                0x00000106                SPI_IRQHandler
                0x00000106                EINT1_IRQHandler
                0x00000106                TIMER1_IRQHandler
                0x00000106                UART2_IRQHandler
                0x00000106                ADC_IRQHandler
                0x00000106                SSP1_IRQHandler
                0x00000106                USB_IRQHandler
                0x00000106                BOD_IRQHandler
                0x00000106                WDT_IRQHandler
                0x00000106                QEI_IRQHandler
                0x00000106                EINT0_IRQHandler
                0x00000106                DMA_IRQHandler
                0x00000106                UART3_IRQHandler
                0x00000106                MCPWM_IRQHandler
                0x00000106                ENET_IRQHandler
                0x00000108                data_init
                0x0000011e                bss_init
                0x00000132                ResetISR
                0x000002fc                . = 0x2fc
 *fill*         0x00000178      0x184 ff
                0x000002fc                PROVIDE (__CRP_WORD_START__, .)
 *(.crp)
 .crp           0x000002fc        0x4 ./src/easyweb.o
                0x000002fc                CRP_WORD
                0x00000300                PROVIDE (__CRP_WORD_END__, .)
                0x00000001                ASSERT (! ((__CRP_WORD_START__ == __CRP_WORD_END__)), Linker CRP Enabled, but no CRP_WORD provided within application)
 *(.text*)
 .text.main     0x00000300       0x70 ./src/easyweb.o
                0x00000300                main
 .text.HTTPServer
                0x00000370      0x148 ./src/easyweb.o
                0x00000370                HTTPServer
 .text.GetAD7Val
                0x000004b8       0x44 ./src/easyweb.o
                0x000004b8                GetAD7Val
 .text.InsertDynamicValues
                0x000004fc       0xe8 ./src/easyweb.o
                0x000004fc                InsertDynamicValues
 .text.WriteToPHY
                0x000005e4       0x50 ./src/ethmac.o
                0x000005e4                WriteToPHY
 .text.ReadFromPHY
                0x00000634       0x60 ./src/ethmac.o
                0x00000634                ReadFromPHY
 .text.Init_EthMAC
                0x00000694      0x3b8 ./src/ethmac.o
                0x00000694                Init_EthMAC
 .text.WriteFrame_EthMAC
                0x00000a4c       0x28 ./src/ethmac.o
                0x00000a4c                WriteFrame_EthMAC
 .text.CopyToFrame_EthMAC
                0x00000a74       0x64 ./src/ethmac.o
                0x00000a74                CopyToFrame_EthMAC
 .text.ReadFrame_EthMAC
                0x00000ad8       0x1c ./src/ethmac.o
                0x00000ad8                ReadFrame_EthMAC
 .text.ReadFrameBE_EthMAC
                0x00000af4       0x2c ./src/ethmac.o
                0x00000af4                ReadFrameBE_EthMAC
 .text.CopyFromFrame_EthMAC
                0x00000b20       0x48 ./src/ethmac.o
                0x00000b20                CopyFromFrame_EthMAC
 .text.DummyReadFrame_EthMAC
                0x00000b68       0x24 ./src/ethmac.o
                0x00000b68                DummyReadFrame_EthMAC
 .text.RequestSend
                0x00000b8c       0x4c ./src/ethmac.o
                0x00000b8c                RequestSend
 .text.Rdy4Tx   0x00000bd8       0x10 ./src/ethmac.o
                0x00000bd8                Rdy4Tx
 .text.StartReadingFrame
                0x00000be8       0x50 ./src/ethmac.o
                0x00000be8                StartReadingFrame
 .text.StopReadingFrame
                0x00000c38       0x34 ./src/ethmac.o
                0x00000c38                StopReadingFrame
 .text.CheckIfFrameReceived
                0x00000c6c       0x28 ./src/ethmac.o
                0x00000c6c                CheckIfFrameReceived
 .text.NVIC_SetPriority
                0x00000c94       0x54 ./src/ew_systick.o
 .text.SysTick_Config
                0x00000ce8       0x44 ./src/ew_systick.o
 .text.SysTick_Handler
                0x00000d2c       0x54 ./src/ew_systick.o
                0x00000d2c                SysTick_Handler
 .text.Start_SysTick10ms
                0x00000d80       0x2c ./src/ew_systick.o
                0x00000d80                Start_SysTick10ms
 .text.TCPLowLevelInit
                0x00000dac       0x44 ./src/tcpip.o
                0x00000dac                TCPLowLevelInit
 .text.TCPPassiveOpen
                0x00000df0       0x3c ./src/tcpip.o
                0x00000df0                TCPPassiveOpen
 .text.TCPClose
                0x00000e2c       0x5c ./src/tcpip.o
                0x00000e2c                TCPClose
 .text.TCPReleaseRxBuffer
                0x00000e88       0x20 ./src/tcpip.o
                0x00000e88                TCPReleaseRxBuffer
 .text.TCPTransmitTxBuffer
                0x00000ea8       0x84 ./src/tcpip.o
                0x00000ea8                TCPTransmitTxBuffer
 .text.BroadcastMessage
                0x00000f2c       0x58 ./src/tcpip.o
                0x00000f2c                BroadcastMessage
 .text.DoNetworkStuff
                0x00000f84      0x27c ./src/tcpip.o
                0x00000f84                DoNetworkStuff
 .text.ProcessEthBroadcastFrame
                0x00001200       0x8c ./src/tcpip.o
                0x00001200                ProcessEthBroadcastFrame
 .text.ProcessEthIAFrame
                0x0000128c      0x114 ./src/tcpip.o
                0x0000128c                ProcessEthIAFrame
 .text.ProcessICMPFrame
                0x000013a0       0x2c ./src/tcpip.o
                0x000013a0                ProcessICMPFrame
 .text.ProcessTCPFrame
                0x000013cc      0x52c ./src/tcpip.o
                0x000013cc                ProcessTCPFrame
 .text.PrepareARP_REQUEST
                0x000018f8       0xfc ./src/tcpip.o
                0x000018f8                PrepareARP_REQUEST
 .text.PrepareARP_ANSWER
                0x000019f4       0xb8 ./src/tcpip.o
                0x000019f4                PrepareARP_ANSWER
 .text.PrepareICMP_ECHO_REPLY
                0x00001aac      0x124 ./src/tcpip.o
                0x00001aac                PrepareICMP_ECHO_REPLY
 .text.PrepareTCP_FRAME
                0x00001bd0      0x1ac ./src/tcpip.o
                0x00001bd0                PrepareTCP_FRAME
 .text.PrepareTCP_DATA_FRAME
                0x00001d7c      0x13c ./src/tcpip.o
                0x00001d7c                PrepareTCP_DATA_FRAME
 .text.CalcChecksum
                0x00001eb8       0xc8 ./src/tcpip.o
                0x00001eb8                CalcChecksum
 .text.TCPStartRetryTimer
                0x00001f80       0x40 ./src/tcpip.o
                0x00001f80                TCPStartRetryTimer
 .text.TCPStartTimeWaitTimer
                0x00001fc0       0x38 ./src/tcpip.o
                0x00001fc0                TCPStartTimeWaitTimer
 .text.TCPRestartTimer
                0x00001ff8       0x18 ./src/tcpip.o
                0x00001ff8                TCPRestartTimer
 .text.TCPStopTimer
                0x00002010       0x20 ./src/tcpip.o
                0x00002010                TCPStopTimer
 .text.TCPHandleRetransmission
                0x00002030       0x64 ./src/tcpip.o
                0x00002030                TCPHandleRetransmission
 .text.TCPHandleTimeout
                0x00002094       0x40 ./src/tcpip.o
                0x00002094                TCPHandleTimeout
 .text.TCPClockHandler
                0x000020d4       0x2c ./src/tcpip.o
                0x000020d4                TCPClockHandler
 .text.SendFrame1
                0x00002100       0x1c ./src/tcpip.o
                0x00002100                SendFrame1
 .text.SendFrame2
                0x0000211c       0x1c ./src/tcpip.o
                0x0000211c                SendFrame2
 .text.WriteWBE
                0x00002138       0x30 ./src/tcpip.o
                0x00002138                WriteWBE
 .text.WriteDWBE
                0x00002168       0x48 ./src/tcpip.o
                0x00002168                WriteDWBE
 .text.SwapBytes
                0x000021b0       0x28 ./src/tcpip.o
                0x000021b0                SwapBytes
 .text.SystemInit
                0x000021d8       0xe4 /home/martin/Documents/proyectosDigitalesIII/CMSISv2p00_LPC17xx/Debug/libCMSISv2p00_LPC17xx.a(system_LPC17xx.o)
                0x000021d8                SystemInit
 .text.__main   0x000022bc       0x14 /home/martin/programasInstalados/lpcxpresso_8.2.2_650/lpcxpresso/tools/bin/../lib/gcc/arm-none-eabi/5.4.1/../../../../arm-none-eabi/lib/armv7-m/libcr_semihost.a(_cr__main.o)
                0x000022bc                __main
                0x000022bc                __CR_SEMIHOST
 .text.memcpy   0x000022d0        0x4 /home/martin/programasInstalados/lpcxpresso_8.2.2_650/lpcxpresso/tools/bin/../lib/gcc/arm-none-eabi/5.4.1/../../../../arm-none-eabi/lib/armv7-m/libcr_c.a(memcpy.o)
                0x000022d0                memcpy
 .text.memset   0x000022d4        0x4 /home/martin/programasInstalados/lpcxpresso_8.2.2_650/lpcxpresso/tools/bin/../lib/gcc/arm-none-eabi/5.4.1/../../../../arm-none-eabi/lib/armv7-m/libcr_c.a(memset.o)
                0x000022d4                memset
 .text._initio  0x000022d8       0xa4 /home/martin/programasInstalados/lpcxpresso_8.2.2_650/lpcxpresso/tools/bin/../lib/gcc/arm-none-eabi/5.4.1/../../../../arm-none-eabi/lib/armv7-m/libcr_c.a(initio.o)
                0x000022d8                _initio
 .text.memcmp   0x0000237c       0x42 /home/martin/programasInstalados/lpcxpresso_8.2.2_650/lpcxpresso/tools/bin/../lib/gcc/arm-none-eabi/5.4.1/../../../../arm-none-eabi/lib/armv7-m/libcr_c.a(memcmp.o)
                0x0000237c                memcmp
 .text.no_fp_display
                0x000023be        0x4 /home/martin/programasInstalados/lpcxpresso_8.2.2_650/lpcxpresso/tools/bin/../lib/gcc/arm-none-eabi/5.4.1/../../../../arm-none-eabi/lib/armv7-m/libcr_c.a(printf.o)
 *fill*         0x000023c2        0x2 ff
 .text.__vfprintf
                0x000023c4      0xd28 /home/martin/programasInstalados/lpcxpresso_8.2.2_650/lpcxpresso/tools/bin/../lib/gcc/arm-none-eabi/5.4.1/../../../../arm-none-eabi/lib/armv7-m/libcr_c.a(printf.o)
                0x000023c4                __vfprintf
 .text._sprintf
                0x000030ec       0x6c /home/martin/programasInstalados/lpcxpresso_8.2.2_650/lpcxpresso/tools/bin/../lib/gcc/arm-none-eabi/5.4.1/../../../../arm-none-eabi/lib/armv7-m/libcr_c.a(printf.o)
                0x000030ec                _sprintf
 .text._vsnprintf
                0x00003158       0x5c /home/martin/programasInstalados/lpcxpresso_8.2.2_650/lpcxpresso/tools/bin/../lib/gcc/arm-none-eabi/5.4.1/../../../../arm-none-eabi/lib/armv7-m/libcr_c.a(printf.o)
                0x00003158                _vsnprintf
 .text._printf  0x000031b4       0x54 /home/martin/programasInstalados/lpcxpresso_8.2.2_650/lpcxpresso/tools/bin/../lib/gcc/arm-none-eabi/5.4.1/../../../../arm-none-eabi/lib/armv7-m/libcr_c.a(printf.o)
                0x000031b4                _printf
 .text.setvbuf  0x00003208       0x40 /home/martin/programasInstalados/lpcxpresso_8.2.2_650/lpcxpresso/tools/bin/../lib/gcc/arm-none-eabi/5.4.1/../../../../arm-none-eabi/lib/armv7-m/libcr_c.a(setvbuf.o)
                0x00003208                setvbuf
 .text.strlen   0x00003248       0x4a /home/martin/programasInstalados/lpcxpresso_8.2.2_650/lpcxpresso/tools/bin/../lib/gcc/arm-none-eabi/5.4.1/../../../../arm-none-eabi/lib/armv7-m/libcr_c.a(strlen.o)
                0x00003248                strlen
 .text._deferredlazyseek
                0x00003292       0x44 /home/martin/programasInstalados/lpcxpresso_8.2.2_650/lpcxpresso/tools/bin/../lib/gcc/arm-none-eabi/5.4.1/../../../../arm-none-eabi/lib/armv7-m/libcr_c.a(_deferredlazyseek.o)
                0x00003292                _deferredlazyseek
 .text.__flsbuf
                0x000032d6      0x140 /home/martin/programasInstalados/lpcxpresso_8.2.2_650/lpcxpresso/tools/bin/../lib/gcc/arm-none-eabi/5.4.1/../../../../arm-none-eabi/lib/armv7-m/libcr_c.a(_deferredlazyseek.o)
                0x000032d6                __flsbuf
 .text._fdopen  0x00003416       0x6a /home/martin/programasInstalados/lpcxpresso_8.2.2_650/lpcxpresso/tools/bin/../lib/gcc/arm-none-eabi/5.4.1/../../../../arm-none-eabi/lib/armv7-m/libcr_c.a(_fdopen.o)
                0x00003416                _fdopen
 .text._fflush  0x00003480       0x58 /home/martin/programasInstalados/lpcxpresso_8.2.2_650/lpcxpresso/tools/bin/../lib/gcc/arm-none-eabi/5.4.1/../../../../arm-none-eabi/lib/armv7-m/libcr_c.a(_fflush.o)
                0x00003480                _fflush
 .text._Cwritebuf
                0x000034d8       0x68 /home/martin/programasInstalados/lpcxpresso_8.2.2_650/lpcxpresso/tools/bin/../lib/gcc/arm-none-eabi/5.4.1/../../../../arm-none-eabi/lib/armv7-m/libcr_c.a(_writebuf.o)
                0x000034d8                _Cwritebuf
 .text.malloc   0x00003540       0xc8 /home/martin/programasInstalados/lpcxpresso_8.2.2_650/lpcxpresso/tools/bin/../lib/gcc/arm-none-eabi/5.4.1/../../../../arm-none-eabi/lib/armv7-m/libcr_c.a(alloc.o)
                0x00003540                malloc
 .text.free     0x00003608       0x30 /home/martin/programasInstalados/lpcxpresso_8.2.2_650/lpcxpresso/tools/bin/../lib/gcc/arm-none-eabi/5.4.1/../../../../arm-none-eabi/lib/armv7-m/libcr_c.a(alloc.o)
                0x00003608                free
 .text._Csys_alloc
                0x00003638       0x20 /home/martin/programasInstalados/lpcxpresso_8.2.2_650/lpcxpresso/tools/bin/../lib/gcc/arm-none-eabi/5.4.1/../../../../arm-none-eabi/lib/armv7-m/libcr_c.a(alloc.o)
                0x00003638                _Csys_alloc
 .text.fclose   0x00003658       0x6c /home/martin/programasInstalados/lpcxpresso_8.2.2_650/lpcxpresso/tools/bin/../lib/gcc/arm-none-eabi/5.4.1/../../../../arm-none-eabi/lib/armv7-m/libcr_c.a(fclose.o)
                0x00003658                fclose
 .text.fflush   0x000036c4       0x30 /home/martin/programasInstalados/lpcxpresso_8.2.2_650/lpcxpresso/tools/bin/../lib/gcc/arm-none-eabi/5.4.1/../../../../arm-none-eabi/lib/armv7-m/libcr_c.a(fflush.o)
                0x000036c4                fflush
 .text.fseek    0x000036f4      0x110 /home/martin/programasInstalados/lpcxpresso_8.2.2_650/lpcxpresso/tools/bin/../lib/gcc/arm-none-eabi/5.4.1/../../../../arm-none-eabi/lib/armv7-m/libcr_c.a(fseek.o)
                0x000036f4                fseek
 .text.ftell    0x00003804       0x4c /home/martin/programasInstalados/lpcxpresso_8.2.2_650/lpcxpresso/tools/bin/../lib/gcc/arm-none-eabi/5.4.1/../../../../arm-none-eabi/lib/armv7-m/libcr_c.a(ftell.o)
                0x00003804                ftell
 .text.remove   0x00003850       0x14 /home/martin/programasInstalados/lpcxpresso_8.2.2_650/lpcxpresso/tools/bin/../lib/gcc/arm-none-eabi/5.4.1/../../../../arm-none-eabi/lib/armv7-m/libcr_c.a(remove.o)
                0x00003850                remove
 .text._sbrk    0x00003864       0x40 /home/martin/programasInstalados/lpcxpresso_8.2.2_650/lpcxpresso/tools/bin/../lib/gcc/arm-none-eabi/5.4.1/../../../../arm-none-eabi/lib/armv7-m/libcr_c.a(_cr_sbrk.o)
                0x00003864                _sbrk
 .text._do_fflush
                0x000038a4       0x44 /home/martin/programasInstalados/lpcxpresso_8.2.2_650/lpcxpresso/tools/bin/../lib/gcc/arm-none-eabi/5.4.1/../../../../arm-none-eabi/lib/armv7-m/libcr_c.a(_do_fflush.o)
                0x000038a4                _do_fflush
 .text.__check_heap_overflow
                0x000038e8       0x18 /home/martin/programasInstalados/lpcxpresso_8.2.2_650/lpcxpresso/tools/bin/../lib/gcc/arm-none-eabi/5.4.1/../../../../arm-none-eabi/lib/armv7-m/libcr_c.a(_cr_check_heap.o)
                0x000038e8                __check_heap_overflow
 .text.__aeabi_memcpy
                0x00003900       0x34 /home/martin/programasInstalados/lpcxpresso_8.2.2_650/lpcxpresso/tools/bin/../lib/gcc/arm-none-eabi/5.4.1/armv7-m/libcr_eabihelpers.a(memcpy.o)
                0x00003900                __aeabi_memcpy
                0x0000390a                __aeabi_memcpy4
                0x0000390a                __aeabi_memcpy8
 .text.__aeabi_memset_lowlevel
                0x00003934       0x32 /home/martin/programasInstalados/lpcxpresso_8.2.2_650/lpcxpresso/tools/bin/../lib/gcc/arm-none-eabi/5.4.1/armv7-m/libcr_eabihelpers.a(memcpy.o)
                0x00003934                __aeabi_lowlevel_memset
 *fill*         0x00003966        0x2 ff
 .text.__sys_appexit
                0x00003968        0xc /home/martin/programasInstalados/lpcxpresso_8.2.2_650/lpcxpresso/tools/bin/../lib/gcc/arm-none-eabi/5.4.1/../../../../arm-none-eabi/lib/armv7-m/libcr_semihost.a(__sys_appexit.o)
                0x00003968                __exit
                0x00003968                __sys_appexit
 .text.__sys_close
                0x00003974        0xc /home/martin/programasInstalados/lpcxpresso_8.2.2_650/lpcxpresso/tools/bin/../lib/gcc/arm-none-eabi/5.4.1/../../../../arm-none-eabi/lib/armv7-m/libcr_semihost.a(__sys_close.o)
                0x00003974                __sys_close
 .text.__sys_flen
                0x00003980        0xc /home/martin/programasInstalados/lpcxpresso_8.2.2_650/lpcxpresso/tools/bin/../lib/gcc/arm-none-eabi/5.4.1/../../../../arm-none-eabi/lib/armv7-m/libcr_semihost.a(__sys_flen.o)
                0x00003980                __sys_flen
 .text.__sys_istty
                0x0000398c        0xc /home/martin/programasInstalados/lpcxpresso_8.2.2_650/lpcxpresso/tools/bin/../lib/gcc/arm-none-eabi/5.4.1/../../../../arm-none-eabi/lib/armv7-m/libcr_semihost.a(__sys_istty.o)
                0x0000398c                __sys_istty
 .text.__sys_remove
                0x00003998        0xc /home/martin/programasInstalados/lpcxpresso_8.2.2_650/lpcxpresso/tools/bin/../lib/gcc/arm-none-eabi/5.4.1/../../../../arm-none-eabi/lib/armv7-m/libcr_semihost.a(__sys_remove.o)
                0x00003998                __sys_remove
 .text.__sys_seek
                0x000039a4        0xc /home/martin/programasInstalados/lpcxpresso_8.2.2_650/lpcxpresso/tools/bin/../lib/gcc/arm-none-eabi/5.4.1/../../../../arm-none-eabi/lib/armv7-m/libcr_semihost.a(__sys_seek.o)
                0x000039a4                __sys_seek
 .text.__sys_tmpnam
                0x000039b0        0xc /home/martin/programasInstalados/lpcxpresso_8.2.2_650/lpcxpresso/tools/bin/../lib/gcc/arm-none-eabi/5.4.1/../../../../arm-none-eabi/lib/armv7-m/libcr_semihost.a(__sys_tmpnam.o)
                0x000039b0                __sys_tmpnam
 .text.__sys_write
                0x000039bc        0xc /home/martin/programasInstalados/lpcxpresso_8.2.2_650/lpcxpresso/tools/bin/../lib/gcc/arm-none-eabi/5.4.1/../../../../arm-none-eabi/lib/armv7-m/libcr_semihost.a(__sys_write.o)
                0x000039bc                __write
                0x000039bc                __sys_write
 *(.rodata .rodata.* .constdata .constdata.*)
 .rodata        0x000039c8      0x5f8 ./src/easyweb.o
                0x000039c8                GetResponse
                0x000039f8                MyIP
                0x000039fc                SubnetMask
                0x00003a00                GatewayIP
                0x00003a04                WebSide
 .rodata        0x00003fc0        0x6 ./src/tcpip.o
                0x00003fc0                MyMAC
 .rodata.str1.1
                0x00003fc6        0x4 /home/martin/programasInstalados/lpcxpresso_8.2.2_650/lpcxpresso/tools/bin/../lib/gcc/arm-none-eabi/5.4.1/../../../../arm-none-eabi/lib/armv7-m/libcr_c.a(initio.o)
 .rodata.str1.1
                0x00003fca       0x37 /home/martin/programasInstalados/lpcxpresso_8.2.2_650/lpcxpresso/tools/bin/../lib/gcc/arm-none-eabi/5.4.1/../../../../arm-none-eabi/lib/armv7-m/libcr_c.a(printf.o)
                                 0x38 (size before relaxing)
 .rodata.str1.1
                0x00004001       0x18 /home/martin/programasInstalados/lpcxpresso_8.2.2_650/lpcxpresso/tools/bin/../lib/gcc/arm-none-eabi/5.4.1/../../../../arm-none-eabi/lib/armv7-m/libcr_c.a(alloc.o)
                0x0000401c                . = ALIGN (0x4)
 *fill*         0x00004019        0x3 ff

.glue_7         0x0000401c        0x0
 .glue_7        0x0000401c        0x0 linker stubs

.glue_7t        0x0000401c        0x0
 .glue_7t       0x0000401c        0x0 linker stubs

.vfp11_veneer   0x0000401c        0x0
 .vfp11_veneer  0x0000401c        0x0 linker stubs

.v4_bx          0x0000401c        0x0
 .v4_bx         0x0000401c        0x0 linker stubs

.iplt           0x0000401c        0x0
 .iplt          0x0000401c        0x0 ./src/cr_startup_lpc176x.o

.rel.dyn        0x0000401c        0x0
 .rel.iplt      0x0000401c        0x0 ./src/cr_startup_lpc176x.o

.ARM.extab
 *(.ARM.extab* .gnu.linkonce.armextab.*)
                0x0000401c                __exidx_start = .

.ARM.exidx
 *(.ARM.exidx* .gnu.linkonce.armexidx.*)
                0x0000401c                __exidx_end = .
                0x0000401c                _etext = .

.data_RAM2      0x2007c000        0x0 load address 0x0000401c
 FILL mask 0xff
                [!provide]                PROVIDE (__start_data_RAM2, .)
 *(.ramfunc.$RAM2)
 *(.ramfunc.$RamAHB32)
 *(.data.$RAM2*)
 *(.data.$RamAHB32*)
                0x2007c000                . = ALIGN (0x4)
                [!provide]                PROVIDE (__end_data_RAM2, .)

.uninit_RESERVED
                0x10000000        0x0
 *(.bss.$RESERVED*)
                0x10000000                . = ALIGN (0x4)
                0x10000000                _end_uninit_RESERVED = .

.data           0x10000000        0x8 load address 0x0000401c
 FILL mask 0xff
                0x10000000                _data = .
 *(vtable)
 *(.ramfunc*)
 *(.data*)
 .data          0x10000000        0x4 ./src/easyweb.o
                0x10000000                aaScrollbar
 .data.SystemCoreClock
                0x10000004        0x4 /home/martin/Documents/proyectosDigitalesIII/CMSISv2p00_LPC17xx/Debug/libCMSISv2p00_LPC17xx.a(system_LPC17xx.o)
                0x10000004                SystemCoreClock
                0x10000008                . = ALIGN (0x4)
                0x10000008                _edata = .

.igot.plt       0x10000008        0x0 load address 0x00004024
 .igot.plt      0x10000008        0x0 ./src/cr_startup_lpc176x.o

.bss_RAM2       0x2007c000        0x0
                [!provide]                PROVIDE (__start_bss_RAM2, .)
 *(.bss.$RAM2*)
 *(.bss.$RamAHB32*)
                0x2007c000                . = ALIGN ((. != 0x0)?0x4:0x1)
                [!provide]                PROVIDE (__end_bss_RAM2, .)

.bss            0x10000008      0x544
                0x10000008                _bss = .
 *(.bss*)
 .bss           0x10000008        0x8 ./src/easyweb.o
                0x10000008                aaPagecounter
                0x1000000c                adcValue
 .bss           0x10000010        0x8 ./src/ethmac.o
 .bss           0x10000018        0x8 ./src/ew_systick.o
                0x10000018                TimeTick
                0x1000001c                TimeTick2
 .bss._extra    0x10000020        0x4 /home/martin/programasInstalados/lpcxpresso_8.2.2_650/lpcxpresso/tools/bin/../lib/gcc/arm-none-eabi/5.4.1/../../../../arm-none-eabi/lib/armv7-m/libcr_c.a(initio.o)
                0x10000020                _extra
 .bss.__Ciob    0x10000024      0x140 /home/martin/programasInstalados/lpcxpresso_8.2.2_650/lpcxpresso/tools/bin/../lib/gcc/arm-none-eabi/5.4.1/../../../../arm-none-eabi/lib/armv7-m/libcr_c.a(stdio.o)
                0x10000024                __Ciob
 .bss.__heaps   0x10000164        0x4 /home/martin/programasInstalados/lpcxpresso_8.2.2_650/lpcxpresso/tools/bin/../lib/gcc/arm-none-eabi/5.4.1/../../../../arm-none-eabi/lib/armv7-m/libcr_c.a(__init_alloc.o)
                0x10000164                __heaps
 .bss.__end_of_heap
                0x10000168        0x4 /home/martin/programasInstalados/lpcxpresso_8.2.2_650/lpcxpresso/tools/bin/../lib/gcc/arm-none-eabi/5.4.1/../../../../arm-none-eabi/lib/armv7-m/libcr_c.a(__init_alloc.o)
                0x10000168                __end_of_heap
 .bss.errno     0x1000016c        0x4 /home/martin/programasInstalados/lpcxpresso_8.2.2_650/lpcxpresso/tools/bin/../lib/gcc/arm-none-eabi/5.4.1/../../../../arm-none-eabi/lib/armv7-m/libcr_c.a(errno.o)
                0x1000016c                errno
 *(COMMON)
 COMMON         0x10000170      0x3da ./src/easyweb.o
                0x10000170                TCPTimer
                0x10000174                HTTPBytesToSend
                0x10000178                TCPRxDataCount
                0x1000017a                HTTPStatus
                0x1000017c                TCPTxDataCount
                0x10000180                RecdFrameIP
                0x10000184                RemoteMAC
                0x1000018a                TCPStateMachine
                0x1000018c                TCPUNASeqNr
                0x10000190                TCPLocalPort
                0x10000194                _RxTCPBuffer
                0x10000294                ITM_RxBuffer
                0x10000298                TCPFlags
                0x1000029c                RecdFrameMAC
                0x100002a2                RecdIPFrameLength
                0x100002a4                PWebSide
                0x100002a8                RemoteIP
                0x100002ac                LastFrameSent
                0x100002ae                TCPRemotePort
                0x100002b0                TxFrame2Size
                0x100002b4                TCPAckNr
                0x100002b8                TransmitControl
                0x100002ba                TxFrame1Size
                0x100002bc                ISNGenHigh
                0x100002c0                _TxFrame2
                0x1000030a                RecdFrameLength
                0x1000030c                _TxFrame1
                0x10000544                TCPSeqNr
                0x10000548                RetryCounter
                0x10000549                SocketStatus
                0x1000054c                . = ALIGN (0x4)
 *fill*         0x1000054a        0x2 
                0x1000054c                _ebss = .
                [!provide]                PROVIDE (end, .)

.noinit_RAM2    0x2007c000        0x0
 *(.noinit.$RAM2*)
 *(.noinit.$RamAHB32*)
                0x2007c000                . = ALIGN (0x4)

.noinit         0x1000054c        0x0
                0x1000054c                _noinit = .
 *(.noinit*)
                0x1000054c                . = ALIGN (0x4)
                0x1000054c                _end_noinit = .
                0x1000054c                PROVIDE (_pvHeapStart, DEFINED (__user_heap_base)?__user_heap_base:.)
                0x10008000                PROVIDE (_vStackTop, DEFINED (__user_stack_top)?__user_stack_top:(__top_RamLoc32 - 0x0))
                [!provide]                PROVIDE (__valid_user_code_checksum, (0x0 - ((((((_vStackTop + (ResetISR + 0x1)) + (NMI_Handler + 0x1)) + (HardFault_Handler + 0x1)) + (DEFINED (MemManage_Handler)?MemManage_Handler:0x0 + 0x1)) + (DEFINED (BusFault_Handler)?BusFault_Handler:0x0 + 0x1)) + (DEFINED (UsageFault_Handler)?UsageFault_Handler:0x0 + 0x1))))
OUTPUT(LPCX176x_cmsis2_EasyWeb.axf elf32-littlearm)

.debug_info     0x00000000     0x2886
 .debug_info    0x00000000      0x2cd ./src/cr_startup_lpc176x.o
 .debug_info    0x000002cd      0x522 ./src/easyweb.o
 .debug_info    0x000007ef      0xa9f ./src/ethmac.o
 .debug_info    0x0000128e      0x81a ./src/ew_systick.o
 .debug_info    0x00001aa8      0xac6 ./src/tcpip.o
 .debug_info    0x0000256e      0x318 /home/martin/Documents/proyectosDigitalesIII/CMSISv2p00_LPC17xx/Debug/libCMSISv2p00_LPC17xx.a(system_LPC17xx.o)

.debug_abbrev   0x00000000      0x9b9
 .debug_abbrev  0x00000000      0x13d ./src/cr_startup_lpc176x.o
 .debug_abbrev  0x0000013d      0x12a ./src/easyweb.o
 .debug_abbrev  0x00000267      0x242 ./src/ethmac.o
 .debug_abbrev  0x000004a9      0x1bb ./src/ew_systick.o
 .debug_abbrev  0x00000664      0x26f ./src/tcpip.o
 .debug_abbrev  0x000008d3       0xe6 /home/martin/Documents/proyectosDigitalesIII/CMSISv2p00_LPC17xx/Debug/libCMSISv2p00_LPC17xx.a(system_LPC17xx.o)

.debug_loc      0x00000000      0x1a5
 .debug_loc     0x00000000      0x1a5 ./src/cr_startup_lpc176x.o

.debug_aranges  0x00000000      0x2a8
 .debug_aranges
                0x00000000       0x80 ./src/cr_startup_lpc176x.o
 .debug_aranges
                0x00000080       0x38 ./src/easyweb.o
 .debug_aranges
                0x000000b8       0x88 ./src/ethmac.o
 .debug_aranges
                0x00000140       0x38 ./src/ew_systick.o
 .debug_aranges
                0x00000178      0x108 ./src/tcpip.o
 .debug_aranges
                0x00000280       0x28 /home/martin/Documents/proyectosDigitalesIII/CMSISv2p00_LPC17xx/Debug/libCMSISv2p00_LPC17xx.a(system_LPC17xx.o)

.debug_ranges   0x00000000      0x248
 .debug_ranges  0x00000000       0x70 ./src/cr_startup_lpc176x.o
 .debug_ranges  0x00000070       0x28 ./src/easyweb.o
 .debug_ranges  0x00000098       0x78 ./src/ethmac.o
 .debug_ranges  0x00000110       0x28 ./src/ew_systick.o
 .debug_ranges  0x00000138       0xf8 ./src/tcpip.o
 .debug_ranges  0x00000230       0x18 /home/martin/Documents/proyectosDigitalesIII/CMSISv2p00_LPC17xx/Debug/libCMSISv2p00_LPC17xx.a(system_LPC17xx.o)

.debug_macro    0x00000000     0x3a03
 .debug_macro   0x00000000       0x52 ./src/cr_startup_lpc176x.o
 .debug_macro   0x00000052      0x898 ./src/cr_startup_lpc176x.o
 .debug_macro   0x000008ea       0x10 ./src/cr_startup_lpc176x.o
 .debug_macro   0x000008fa      0x12d ./src/cr_startup_lpc176x.o
 .debug_macro   0x00000a27      0x5b2 ./src/cr_startup_lpc176x.o
 .debug_macro   0x00000fd9       0xe0 ./src/easyweb.o
 .debug_macro   0x000010b9      0x892 ./src/easyweb.o
 .debug_macro   0x0000194b       0x28 ./src/easyweb.o
 .debug_macro   0x00001973       0xd2 ./src/easyweb.o
 .debug_macro   0x00001a45       0x82 ./src/easyweb.o
 .debug_macro   0x00001ac7       0x34 ./src/easyweb.o
 .debug_macro   0x00001afb       0x10 ./src/easyweb.o
 .debug_macro   0x00001b0b      0x5e5 ./src/easyweb.o
 .debug_macro   0x000020f0      0x2db ./src/easyweb.o
 .debug_macro   0x000023cb       0x1c ./src/easyweb.o
 .debug_macro   0x000023e7       0x2e ./src/easyweb.o
 .debug_macro   0x00002415       0x18 ./src/easyweb.o
 .debug_macro   0x0000242d      0x7af ./src/easyweb.o
 .debug_macro   0x00002bdc      0x2c7 ./src/easyweb.o
 .debug_macro   0x00002ea3       0x9f ./src/ethmac.o
 .debug_macro   0x00002f42       0x75 ./src/ew_systick.o
 .debug_macro   0x00002fb7       0x9b ./src/tcpip.o
 .debug_macro   0x00003052      0x12b /home/martin/Documents/proyectosDigitalesIII/CMSISv2p00_LPC17xx/Debug/libCMSISv2p00_LPC17xx.a(system_LPC17xx.o)
 .debug_macro   0x0000317d      0x886 /home/martin/Documents/proyectosDigitalesIII/CMSISv2p00_LPC17xx/Debug/libCMSISv2p00_LPC17xx.a(system_LPC17xx.o)

.debug_line     0x00000000     0x1367
 .debug_line    0x00000000      0x1d4 ./src/cr_startup_lpc176x.o
 .debug_line    0x000001d4      0x37f ./src/easyweb.o
 .debug_line    0x00000553      0x3ca ./src/ethmac.o
 .debug_line    0x0000091d      0x221 ./src/ew_systick.o
 .debug_line    0x00000b3e      0x622 ./src/tcpip.o
 .debug_line    0x00001160      0x207 /home/martin/Documents/proyectosDigitalesIII/CMSISv2p00_LPC17xx/Debug/libCMSISv2p00_LPC17xx.a(system_LPC17xx.o)

.debug_str      0x00000000     0xbaed
 .debug_str     0x00000000     0x3dbe ./src/cr_startup_lpc176x.o
                               0x3e3d (size before relaxing)
 .debug_str     0x00003dbe     0x6c91 ./src/easyweb.o
                               0xa895 (size before relaxing)
 .debug_str     0x0000aa4f      0x5d8 ./src/ethmac.o
                               0xa2f7 (size before relaxing)
 .debug_str     0x0000b027      0x43b ./src/ew_systick.o
                               0x81ba (size before relaxing)
 .debug_str     0x0000b462      0x2bf ./src/tcpip.o
                               0xa37c (size before relaxing)
 .debug_str     0x0000b721      0x3cc /home/martin/Documents/proyectosDigitalesIII/CMSISv2p00_LPC17xx/Debug/libCMSISv2p00_LPC17xx.a(system_LPC17xx.o)
                               0x8140 (size before relaxing)

.comment        0x00000000       0xdc
 .comment       0x00000000       0x6e ./src/cr_startup_lpc176x.o
                                 0x6f (size before relaxing)
 .comment       0x0000006e       0x6f ./src/easyweb.o
 .comment       0x0000006e       0x6f ./src/ethmac.o
 .comment       0x0000006e       0x6f ./src/ew_systick.o
 .comment       0x0000006e       0x6f ./src/tcpip.o
 .comment       0x0000006e       0x6f /home/martin/Documents/proyectosDigitalesIII/CMSISv2p00_LPC17xx/Debug/libCMSISv2p00_LPC17xx.a(system_LPC17xx.o)
 .comment       0x0000006e       0x6e /home/martin/programasInstalados/lpcxpresso_8.2.2_650/lpcxpresso/tools/bin/../lib/gcc/arm-none-eabi/5.4.1/../../../../arm-none-eabi/lib/armv7-m/libcr_semihost.a(_cr__main.o)
                                 0x6f (size before relaxing)
 .comment       0x000000dc       0x6f /home/martin/programasInstalados/lpcxpresso_8.2.2_650/lpcxpresso/tools/bin/../lib/gcc/arm-none-eabi/5.4.1/../../../../arm-none-eabi/lib/armv7-m/libcr_c.a(memcpy.o)
 .comment       0x000000dc       0x6f /home/martin/programasInstalados/lpcxpresso_8.2.2_650/lpcxpresso/tools/bin/../lib/gcc/arm-none-eabi/5.4.1/../../../../arm-none-eabi/lib/armv7-m/libcr_c.a(memset.o)
 .comment       0x000000dc       0x6f /home/martin/programasInstalados/lpcxpresso_8.2.2_650/lpcxpresso/tools/bin/../lib/gcc/arm-none-eabi/5.4.1/../../../../arm-none-eabi/lib/armv7-m/libcr_c.a(initio.o)
 .comment       0x000000dc       0x6f /home/martin/programasInstalados/lpcxpresso_8.2.2_650/lpcxpresso/tools/bin/../lib/gcc/arm-none-eabi/5.4.1/../../../../arm-none-eabi/lib/armv7-m/libcr_c.a(memcmp.o)
 .comment       0x000000dc       0x6f /home/martin/programasInstalados/lpcxpresso_8.2.2_650/lpcxpresso/tools/bin/../lib/gcc/arm-none-eabi/5.4.1/../../../../arm-none-eabi/lib/armv7-m/libcr_c.a(printf.o)
 .comment       0x000000dc       0x6f /home/martin/programasInstalados/lpcxpresso_8.2.2_650/lpcxpresso/tools/bin/../lib/gcc/arm-none-eabi/5.4.1/../../../../arm-none-eabi/lib/armv7-m/libcr_c.a(setvbuf.o)
 .comment       0x000000dc       0x6f /home/martin/programasInstalados/lpcxpresso_8.2.2_650/lpcxpresso/tools/bin/../lib/gcc/arm-none-eabi/5.4.1/../../../../arm-none-eabi/lib/armv7-m/libcr_c.a(stdio.o)
 .comment       0x000000dc       0x6f /home/martin/programasInstalados/lpcxpresso_8.2.2_650/lpcxpresso/tools/bin/../lib/gcc/arm-none-eabi/5.4.1/../../../../arm-none-eabi/lib/armv7-m/libcr_c.a(strlen.o)
 .comment       0x000000dc       0x6f /home/martin/programasInstalados/lpcxpresso_8.2.2_650/lpcxpresso/tools/bin/../lib/gcc/arm-none-eabi/5.4.1/../../../../arm-none-eabi/lib/armv7-m/libcr_c.a(_deferredlazyseek.o)
 .comment       0x000000dc       0x6f /home/martin/programasInstalados/lpcxpresso_8.2.2_650/lpcxpresso/tools/bin/../lib/gcc/arm-none-eabi/5.4.1/../../../../arm-none-eabi/lib/armv7-m/libcr_c.a(_fdopen.o)
 .comment       0x000000dc       0x6f /home/martin/programasInstalados/lpcxpresso_8.2.2_650/lpcxpresso/tools/bin/../lib/gcc/arm-none-eabi/5.4.1/../../../../arm-none-eabi/lib/armv7-m/libcr_c.a(_fflush.o)
 .comment       0x000000dc       0x6f /home/martin/programasInstalados/lpcxpresso_8.2.2_650/lpcxpresso/tools/bin/../lib/gcc/arm-none-eabi/5.4.1/../../../../arm-none-eabi/lib/armv7-m/libcr_c.a(_writebuf.o)
 .comment       0x000000dc       0x6f /home/martin/programasInstalados/lpcxpresso_8.2.2_650/lpcxpresso/tools/bin/../lib/gcc/arm-none-eabi/5.4.1/../../../../arm-none-eabi/lib/armv7-m/libcr_c.a(alloc.o)
 .comment       0x000000dc       0x6f /home/martin/programasInstalados/lpcxpresso_8.2.2_650/lpcxpresso/tools/bin/../lib/gcc/arm-none-eabi/5.4.1/../../../../arm-none-eabi/lib/armv7-m/libcr_c.a(fclose.o)
 .comment       0x000000dc       0x6f /home/martin/programasInstalados/lpcxpresso_8.2.2_650/lpcxpresso/tools/bin/../lib/gcc/arm-none-eabi/5.4.1/../../../../arm-none-eabi/lib/armv7-m/libcr_c.a(fflush.o)
 .comment       0x000000dc       0x6f /home/martin/programasInstalados/lpcxpresso_8.2.2_650/lpcxpresso/tools/bin/../lib/gcc/arm-none-eabi/5.4.1/../../../../arm-none-eabi/lib/armv7-m/libcr_c.a(fseek.o)
 .comment       0x000000dc       0x6f /home/martin/programasInstalados/lpcxpresso_8.2.2_650/lpcxpresso/tools/bin/../lib/gcc/arm-none-eabi/5.4.1/../../../../arm-none-eabi/lib/armv7-m/libcr_c.a(ftell.o)
 .comment       0x000000dc       0x6f /home/martin/programasInstalados/lpcxpresso_8.2.2_650/lpcxpresso/tools/bin/../lib/gcc/arm-none-eabi/5.4.1/../../../../arm-none-eabi/lib/armv7-m/libcr_c.a(remove.o)
 .comment       0x000000dc       0x6f /home/martin/programasInstalados/lpcxpresso_8.2.2_650/lpcxpresso/tools/bin/../lib/gcc/arm-none-eabi/5.4.1/../../../../arm-none-eabi/lib/armv7-m/libcr_c.a(__init_alloc.o)
 .comment       0x000000dc       0x6f /home/martin/programasInstalados/lpcxpresso_8.2.2_650/lpcxpresso/tools/bin/../lib/gcc/arm-none-eabi/5.4.1/../../../../arm-none-eabi/lib/armv7-m/libcr_c.a(_cr_sbrk.o)
 .comment       0x000000dc       0x6f /home/martin/programasInstalados/lpcxpresso_8.2.2_650/lpcxpresso/tools/bin/../lib/gcc/arm-none-eabi/5.4.1/../../../../arm-none-eabi/lib/armv7-m/libcr_c.a(_do_fflush.o)
 .comment       0x000000dc       0x6f /home/martin/programasInstalados/lpcxpresso_8.2.2_650/lpcxpresso/tools/bin/../lib/gcc/arm-none-eabi/5.4.1/../../../../arm-none-eabi/lib/armv7-m/libcr_c.a(errno.o)
 .comment       0x000000dc       0x6f /home/martin/programasInstalados/lpcxpresso_8.2.2_650/lpcxpresso/tools/bin/../lib/gcc/arm-none-eabi/5.4.1/../../../../arm-none-eabi/lib/armv7-m/libcr_c.a(_cr_check_heap.o)

.ARM.attributes
                0x00000000       0x31
 .ARM.attributes
                0x00000000       0x33 ./src/cr_startup_lpc176x.o
 .ARM.attributes
                0x00000033       0x33 ./src/easyweb.o
 .ARM.attributes
                0x00000066       0x33 ./src/ethmac.o
 .ARM.attributes
                0x00000099       0x33 ./src/ew_systick.o
 .ARM.attributes
                0x000000cc       0x33 ./src/tcpip.o
 .ARM.attributes
                0x000000ff       0x33 /home/martin/Documents/proyectosDigitalesIII/CMSISv2p00_LPC17xx/Debug/libCMSISv2p00_LPC17xx.a(system_LPC17xx.o)
 .ARM.attributes
                0x00000132       0x33 /home/martin/programasInstalados/lpcxpresso_8.2.2_650/lpcxpresso/tools/bin/../lib/gcc/arm-none-eabi/5.4.1/../../../../arm-none-eabi/lib/armv7-m/libcr_semihost.a(_cr__main.o)
 .ARM.attributes
                0x00000165       0x33 /home/martin/programasInstalados/lpcxpresso_8.2.2_650/lpcxpresso/tools/bin/../lib/gcc/arm-none-eabi/5.4.1/../../../../arm-none-eabi/lib/armv7-m/libcr_c.a(memcpy.o)
 .ARM.attributes
                0x00000198       0x33 /home/martin/programasInstalados/lpcxpresso_8.2.2_650/lpcxpresso/tools/bin/../lib/gcc/arm-none-eabi/5.4.1/../../../../arm-none-eabi/lib/armv7-m/libcr_c.a(memset.o)
 .ARM.attributes
                0x000001cb       0x33 /home/martin/programasInstalados/lpcxpresso_8.2.2_650/lpcxpresso/tools/bin/../lib/gcc/arm-none-eabi/5.4.1/../../../../arm-none-eabi/lib/armv7-m/libcr_c.a(initio.o)
 .ARM.attributes
                0x000001fe       0x33 /home/martin/programasInstalados/lpcxpresso_8.2.2_650/lpcxpresso/tools/bin/../lib/gcc/arm-none-eabi/5.4.1/../../../../arm-none-eabi/lib/armv7-m/libcr_c.a(memcmp.o)
 .ARM.attributes
                0x00000231       0x33 /home/martin/programasInstalados/lpcxpresso_8.2.2_650/lpcxpresso/tools/bin/../lib/gcc/arm-none-eabi/5.4.1/../../../../arm-none-eabi/lib/armv7-m/libcr_c.a(printf.o)
 .ARM.attributes
                0x00000264       0x33 /home/martin/programasInstalados/lpcxpresso_8.2.2_650/lpcxpresso/tools/bin/../lib/gcc/arm-none-eabi/5.4.1/../../../../arm-none-eabi/lib/armv7-m/libcr_c.a(setvbuf.o)
 .ARM.attributes
                0x00000297       0x33 /home/martin/programasInstalados/lpcxpresso_8.2.2_650/lpcxpresso/tools/bin/../lib/gcc/arm-none-eabi/5.4.1/../../../../arm-none-eabi/lib/armv7-m/libcr_c.a(stdio.o)
 .ARM.attributes
                0x000002ca       0x33 /home/martin/programasInstalados/lpcxpresso_8.2.2_650/lpcxpresso/tools/bin/../lib/gcc/arm-none-eabi/5.4.1/../../../../arm-none-eabi/lib/armv7-m/libcr_c.a(strlen.o)
 .ARM.attributes
                0x000002fd       0x33 /home/martin/programasInstalados/lpcxpresso_8.2.2_650/lpcxpresso/tools/bin/../lib/gcc/arm-none-eabi/5.4.1/../../../../arm-none-eabi/lib/armv7-m/libcr_c.a(_deferredlazyseek.o)
 .ARM.attributes
                0x00000330       0x33 /home/martin/programasInstalados/lpcxpresso_8.2.2_650/lpcxpresso/tools/bin/../lib/gcc/arm-none-eabi/5.4.1/../../../../arm-none-eabi/lib/armv7-m/libcr_c.a(_fdopen.o)
 .ARM.attributes
                0x00000363       0x33 /home/martin/programasInstalados/lpcxpresso_8.2.2_650/lpcxpresso/tools/bin/../lib/gcc/arm-none-eabi/5.4.1/../../../../arm-none-eabi/lib/armv7-m/libcr_c.a(_fflush.o)
 .ARM.attributes
                0x00000396       0x33 /home/martin/programasInstalados/lpcxpresso_8.2.2_650/lpcxpresso/tools/bin/../lib/gcc/arm-none-eabi/5.4.1/../../../../arm-none-eabi/lib/armv7-m/libcr_c.a(_writebuf.o)
 .ARM.attributes
                0x000003c9       0x33 /home/martin/programasInstalados/lpcxpresso_8.2.2_650/lpcxpresso/tools/bin/../lib/gcc/arm-none-eabi/5.4.1/../../../../arm-none-eabi/lib/armv7-m/libcr_c.a(alloc.o)
 .ARM.attributes
                0x000003fc       0x33 /home/martin/programasInstalados/lpcxpresso_8.2.2_650/lpcxpresso/tools/bin/../lib/gcc/arm-none-eabi/5.4.1/../../../../arm-none-eabi/lib/armv7-m/libcr_c.a(fclose.o)
 .ARM.attributes
                0x0000042f       0x33 /home/martin/programasInstalados/lpcxpresso_8.2.2_650/lpcxpresso/tools/bin/../lib/gcc/arm-none-eabi/5.4.1/../../../../arm-none-eabi/lib/armv7-m/libcr_c.a(fflush.o)
 .ARM.attributes
                0x00000462       0x33 /home/martin/programasInstalados/lpcxpresso_8.2.2_650/lpcxpresso/tools/bin/../lib/gcc/arm-none-eabi/5.4.1/../../../../arm-none-eabi/lib/armv7-m/libcr_c.a(fseek.o)
 .ARM.attributes
                0x00000495       0x33 /home/martin/programasInstalados/lpcxpresso_8.2.2_650/lpcxpresso/tools/bin/../lib/gcc/arm-none-eabi/5.4.1/../../../../arm-none-eabi/lib/armv7-m/libcr_c.a(ftell.o)
 .ARM.attributes
                0x000004c8       0x33 /home/martin/programasInstalados/lpcxpresso_8.2.2_650/lpcxpresso/tools/bin/../lib/gcc/arm-none-eabi/5.4.1/../../../../arm-none-eabi/lib/armv7-m/libcr_c.a(remove.o)
 .ARM.attributes
                0x000004fb       0x33 /home/martin/programasInstalados/lpcxpresso_8.2.2_650/lpcxpresso/tools/bin/../lib/gcc/arm-none-eabi/5.4.1/../../../../arm-none-eabi/lib/armv7-m/libcr_c.a(__init_alloc.o)
 .ARM.attributes
                0x0000052e       0x33 /home/martin/programasInstalados/lpcxpresso_8.2.2_650/lpcxpresso/tools/bin/../lib/gcc/arm-none-eabi/5.4.1/../../../../arm-none-eabi/lib/armv7-m/libcr_c.a(_cr_sbrk.o)
 .ARM.attributes
                0x00000561       0x33 /home/martin/programasInstalados/lpcxpresso_8.2.2_650/lpcxpresso/tools/bin/../lib/gcc/arm-none-eabi/5.4.1/../../../../arm-none-eabi/lib/armv7-m/libcr_c.a(_do_fflush.o)
 .ARM.attributes
                0x00000594       0x33 /home/martin/programasInstalados/lpcxpresso_8.2.2_650/lpcxpresso/tools/bin/../lib/gcc/arm-none-eabi/5.4.1/../../../../arm-none-eabi/lib/armv7-m/libcr_c.a(errno.o)
 .ARM.attributes
                0x000005c7       0x33 /home/martin/programasInstalados/lpcxpresso_8.2.2_650/lpcxpresso/tools/bin/../lib/gcc/arm-none-eabi/5.4.1/../../../../arm-none-eabi/lib/armv7-m/libcr_c.a(_cr_check_heap.o)
 .ARM.attributes
                0x000005fa       0x21 /home/martin/programasInstalados/lpcxpresso_8.2.2_650/lpcxpresso/tools/bin/../lib/gcc/arm-none-eabi/5.4.1/armv7-m/libcr_eabihelpers.a(memcpy.o)
 .ARM.attributes
                0x0000061b       0x21 /home/martin/programasInstalados/lpcxpresso_8.2.2_650/lpcxpresso/tools/bin/../lib/gcc/arm-none-eabi/5.4.1/../../../../arm-none-eabi/lib/armv7-m/libcr_semihost.a(__sys_appexit.o)
 .ARM.attributes
                0x0000063c       0x21 /home/martin/programasInstalados/lpcxpresso_8.2.2_650/lpcxpresso/tools/bin/../lib/gcc/arm-none-eabi/5.4.1/../../../../arm-none-eabi/lib/armv7-m/libcr_semihost.a(__sys_close.o)
 .ARM.attributes
                0x0000065d       0x21 /home/martin/programasInstalados/lpcxpresso_8.2.2_650/lpcxpresso/tools/bin/../lib/gcc/arm-none-eabi/5.4.1/../../../../arm-none-eabi/lib/armv7-m/libcr_semihost.a(__sys_flen.o)
 .ARM.attributes
                0x0000067e       0x21 /home/martin/programasInstalados/lpcxpresso_8.2.2_650/lpcxpresso/tools/bin/../lib/gcc/arm-none-eabi/5.4.1/../../../../arm-none-eabi/lib/armv7-m/libcr_semihost.a(__sys_istty.o)
 .ARM.attributes
                0x0000069f       0x21 /home/martin/programasInstalados/lpcxpresso_8.2.2_650/lpcxpresso/tools/bin/../lib/gcc/arm-none-eabi/5.4.1/../../../../arm-none-eabi/lib/armv7-m/libcr_semihost.a(__sys_remove.o)
 .ARM.attributes
                0x000006c0       0x21 /home/martin/programasInstalados/lpcxpresso_8.2.2_650/lpcxpresso/tools/bin/../lib/gcc/arm-none-eabi/5.4.1/../../../../arm-none-eabi/lib/armv7-m/libcr_semihost.a(__sys_seek.o)
 .ARM.attributes
                0x000006e1       0x21 /home/martin/programasInstalados/lpcxpresso_8.2.2_650/lpcxpresso/tools/bin/../lib/gcc/arm-none-eabi/5.4.1/../../../../arm-none-eabi/lib/armv7-m/libcr_semihost.a(__sys_tmpnam.o)
 .ARM.attributes
                0x00000702       0x21 /home/martin/programasInstalados/lpcxpresso_8.2.2_650/lpcxpresso/tools/bin/../lib/gcc/arm-none-eabi/5.4.1/../../../../arm-none-eabi/lib/armv7-m/libcr_semihost.a(__sys_write.o)

.debug_frame    0x00000000      0x85c
 .debug_frame   0x00000000       0xfc ./src/cr_startup_lpc176x.o
 .debug_frame   0x000000fc       0x90 ./src/easyweb.o
 .debug_frame   0x0000018c      0x21c ./src/ethmac.o
 .debug_frame   0x000003a8       0x94 ./src/ew_systick.o
 .debug_frame   0x0000043c      0x3e4 ./src/tcpip.o
 .debug_frame   0x00000820       0x3c /home/martin/Documents/proyectosDigitalesIII/CMSISv2p00_LPC17xx/Debug/libCMSISv2p00_LPC17xx.a(system_LPC17xx.o)
